{
  "contractName": "NFT",
  "abi": [
    {
      "inputs": [
        {
          "internalType": "address",
          "name": "marketplaceAddress",
          "type": "address"
        }
      ],
      "stateMutability": "nonpayable",
      "type": "constructor"
    },
    {
      "anonymous": false,
      "inputs": [
        {
          "indexed": true,
          "internalType": "address",
          "name": "owner",
          "type": "address"
        },
        {
          "indexed": true,
          "internalType": "address",
          "name": "approved",
          "type": "address"
        },
        {
          "indexed": true,
          "internalType": "uint256",
          "name": "tokenId",
          "type": "uint256"
        }
      ],
      "name": "Approval",
      "type": "event"
    },
    {
      "anonymous": false,
      "inputs": [
        {
          "indexed": true,
          "internalType": "address",
          "name": "owner",
          "type": "address"
        },
        {
          "indexed": true,
          "internalType": "address",
          "name": "operator",
          "type": "address"
        },
        {
          "indexed": false,
          "internalType": "bool",
          "name": "approved",
          "type": "bool"
        }
      ],
      "name": "ApprovalForAll",
      "type": "event"
    },
    {
      "anonymous": false,
      "inputs": [
        {
          "indexed": false,
          "internalType": "uint256",
          "name": "tokenId",
          "type": "uint256"
        },
        {
          "components": [
            {
              "internalType": "address payable",
              "name": "account",
              "type": "address"
            },
            {
              "internalType": "uint96",
              "name": "value",
              "type": "uint96"
            }
          ],
          "indexed": false,
          "internalType": "struct LibPart.Part[]",
          "name": "royalties",
          "type": "tuple[]"
        }
      ],
      "name": "RoyaltiesSet",
      "type": "event"
    },
    {
      "anonymous": false,
      "inputs": [
        {
          "indexed": true,
          "internalType": "address",
          "name": "from",
          "type": "address"
        },
        {
          "indexed": true,
          "internalType": "address",
          "name": "to",
          "type": "address"
        },
        {
          "indexed": true,
          "internalType": "uint256",
          "name": "tokenId",
          "type": "uint256"
        }
      ],
      "name": "Transfer",
      "type": "event"
    },
    {
      "inputs": [
        {
          "internalType": "address",
          "name": "to",
          "type": "address"
        },
        {
          "internalType": "uint256",
          "name": "tokenId",
          "type": "uint256"
        }
      ],
      "name": "approve",
      "outputs": [],
      "stateMutability": "nonpayable",
      "type": "function"
    },
    {
      "inputs": [
        {
          "internalType": "address",
          "name": "owner",
          "type": "address"
        }
      ],
      "name": "balanceOf",
      "outputs": [
        {
          "internalType": "uint256",
          "name": "",
          "type": "uint256"
        }
      ],
      "stateMutability": "view",
      "type": "function",
      "constant": true
    },
    {
      "inputs": [
        {
          "internalType": "uint256",
          "name": "tokenId",
          "type": "uint256"
        }
      ],
      "name": "getApproved",
      "outputs": [
        {
          "internalType": "address",
          "name": "",
          "type": "address"
        }
      ],
      "stateMutability": "view",
      "type": "function",
      "constant": true
    },
    {
      "inputs": [
        {
          "internalType": "uint256",
          "name": "id",
          "type": "uint256"
        }
      ],
      "name": "getRaribleV2Royalties",
      "outputs": [
        {
          "components": [
            {
              "internalType": "address payable",
              "name": "account",
              "type": "address"
            },
            {
              "internalType": "uint96",
              "name": "value",
              "type": "uint96"
            }
          ],
          "internalType": "struct LibPart.Part[]",
          "name": "",
          "type": "tuple[]"
        }
      ],
      "stateMutability": "view",
      "type": "function",
      "constant": true
    },
    {
      "inputs": [
        {
          "internalType": "address",
          "name": "owner",
          "type": "address"
        },
        {
          "internalType": "address",
          "name": "operator",
          "type": "address"
        }
      ],
      "name": "isApprovedForAll",
      "outputs": [
        {
          "internalType": "bool",
          "name": "",
          "type": "bool"
        }
      ],
      "stateMutability": "view",
      "type": "function",
      "constant": true
    },
    {
      "inputs": [],
      "name": "name",
      "outputs": [
        {
          "internalType": "string",
          "name": "",
          "type": "string"
        }
      ],
      "stateMutability": "view",
      "type": "function",
      "constant": true
    },
    {
      "inputs": [
        {
          "internalType": "uint256",
          "name": "tokenId",
          "type": "uint256"
        }
      ],
      "name": "ownerOf",
      "outputs": [
        {
          "internalType": "address",
          "name": "",
          "type": "address"
        }
      ],
      "stateMutability": "view",
      "type": "function",
      "constant": true
    },
    {
      "inputs": [
        {
          "internalType": "uint256",
          "name": "",
          "type": "uint256"
        },
        {
          "internalType": "uint256",
          "name": "",
          "type": "uint256"
        }
      ],
      "name": "royalties",
      "outputs": [
        {
          "internalType": "address payable",
          "name": "account",
          "type": "address"
        },
        {
          "internalType": "uint96",
          "name": "value",
          "type": "uint96"
        }
      ],
      "stateMutability": "view",
      "type": "function",
      "constant": true
    },
    {
      "inputs": [
        {
          "internalType": "address",
          "name": "from",
          "type": "address"
        },
        {
          "internalType": "address",
          "name": "to",
          "type": "address"
        },
        {
          "internalType": "uint256",
          "name": "tokenId",
          "type": "uint256"
        }
      ],
      "name": "safeTransferFrom",
      "outputs": [],
      "stateMutability": "nonpayable",
      "type": "function"
    },
    {
      "inputs": [
        {
          "internalType": "address",
          "name": "from",
          "type": "address"
        },
        {
          "internalType": "address",
          "name": "to",
          "type": "address"
        },
        {
          "internalType": "uint256",
          "name": "tokenId",
          "type": "uint256"
        },
        {
          "internalType": "bytes",
          "name": "_data",
          "type": "bytes"
        }
      ],
      "name": "safeTransferFrom",
      "outputs": [],
      "stateMutability": "nonpayable",
      "type": "function"
    },
    {
      "inputs": [
        {
          "internalType": "address",
          "name": "operator",
          "type": "address"
        },
        {
          "internalType": "bool",
          "name": "approved",
          "type": "bool"
        }
      ],
      "name": "setApprovalForAll",
      "outputs": [],
      "stateMutability": "nonpayable",
      "type": "function"
    },
    {
      "inputs": [],
      "name": "symbol",
      "outputs": [
        {
          "internalType": "string",
          "name": "",
          "type": "string"
        }
      ],
      "stateMutability": "view",
      "type": "function",
      "constant": true
    },
    {
      "inputs": [
        {
          "internalType": "uint256",
          "name": "index",
          "type": "uint256"
        }
      ],
      "name": "tokenByIndex",
      "outputs": [
        {
          "internalType": "uint256",
          "name": "",
          "type": "uint256"
        }
      ],
      "stateMutability": "view",
      "type": "function",
      "constant": true
    },
    {
      "inputs": [
        {
          "internalType": "address",
          "name": "owner",
          "type": "address"
        },
        {
          "internalType": "uint256",
          "name": "index",
          "type": "uint256"
        }
      ],
      "name": "tokenOfOwnerByIndex",
      "outputs": [
        {
          "internalType": "uint256",
          "name": "",
          "type": "uint256"
        }
      ],
      "stateMutability": "view",
      "type": "function",
      "constant": true
    },
    {
      "inputs": [],
      "name": "totalSupply",
      "outputs": [
        {
          "internalType": "uint256",
          "name": "",
          "type": "uint256"
        }
      ],
      "stateMutability": "view",
      "type": "function",
      "constant": true
    },
    {
      "inputs": [
        {
          "internalType": "address",
          "name": "from",
          "type": "address"
        },
        {
          "internalType": "address",
          "name": "to",
          "type": "address"
        },
        {
          "internalType": "uint256",
          "name": "tokenId",
          "type": "uint256"
        }
      ],
      "name": "transferFrom",
      "outputs": [],
      "stateMutability": "nonpayable",
      "type": "function"
    },
    {
      "inputs": [
        {
          "internalType": "uint256",
          "name": "tokenId",
          "type": "uint256"
        }
      ],
      "name": "tokenURI",
      "outputs": [
        {
          "internalType": "string",
          "name": "",
          "type": "string"
        }
      ],
      "stateMutability": "view",
      "type": "function",
      "constant": true
    },
    {
      "inputs": [
        {
          "internalType": "string",
          "name": "nftTokenURl",
          "type": "string"
        }
      ],
      "name": "createNFtToken",
      "outputs": [
        {
          "internalType": "uint256",
          "name": "",
          "type": "uint256"
        }
      ],
      "stateMutability": "nonpayable",
      "type": "function"
    },
    {
      "inputs": [
        {
          "internalType": "uint256",
          "name": "_tokenId",
          "type": "uint256"
        },
        {
          "internalType": "address payable",
          "name": "_royaltiesRecipientAddress",
          "type": "address"
        },
        {
          "internalType": "uint96",
          "name": "_percentageBasisPoints",
          "type": "uint96"
        }
      ],
      "name": "setRoyalties",
      "outputs": [],
      "stateMutability": "nonpayable",
      "type": "function"
    },
    {
      "inputs": [
        {
          "internalType": "uint256",
          "name": "_tokenId",
          "type": "uint256"
        },
        {
          "internalType": "uint256",
          "name": "_salePrice",
          "type": "uint256"
        }
      ],
      "name": "royaltyInfo",
      "outputs": [
        {
          "internalType": "address",
          "name": "receiver",
          "type": "address"
        },
        {
          "internalType": "uint256",
          "name": "royaltyAmount",
          "type": "uint256"
        }
      ],
      "stateMutability": "view",
      "type": "function",
      "constant": true
    },
    {
      "inputs": [
        {
          "internalType": "bytes4",
          "name": "interfaceId",
          "type": "bytes4"
        }
      ],
      "name": "supportsInterface",
      "outputs": [
        {
          "internalType": "bool",
          "name": "",
          "type": "bool"
        }
      ],
      "stateMutability": "view",
      "type": "function",
      "constant": true
    },
    {
      "inputs": [
        {
          "internalType": "address",
          "name": "from",
          "type": "address"
        },
        {
          "internalType": "address",
          "name": "to",
          "type": "address"
        },
        {
          "internalType": "uint256",
          "name": "tokenId",
          "type": "uint256"
        }
      ],
      "name": "transferToken",
      "outputs": [],
      "stateMutability": "nonpayable",
      "type": "function"
    },
    {
      "inputs": [],
      "name": "getContractAddress",
      "outputs": [
        {
          "internalType": "address",
          "name": "",
          "type": "address"
        }
      ],
      "stateMutability": "view",
      "type": "function",
      "constant": true
    }
  ],
  "bytecode": "0x60806040523480156200001157600080fd5b50604051620044a4380380620044a4833981810160405281019062000037919062000239565b6040518060400160405280600781526020017f4f444f4e4e4654000000000000000000000000000000000000000000000000008152506040518060400160405280600481526020017f4f444f4e000000000000000000000000000000000000000000000000000000008152508160009080519060200190620000bb9291906200011f565b508060019080519060200190620000d49291906200011f565b50505080600d60006101000a81548173ffffffffffffffffffffffffffffffffffffffff021916908373ffffffffffffffffffffffffffffffffffffffff16021790555050620002cf565b8280546200012d906200029a565b90600052602060002090601f0160209004810192826200015157600085556200019d565b82601f106200016c57805160ff19168380011785556200019d565b828001600101855582156200019d579182015b828111156200019c5782518255916020019190600101906200017f565b5b509050620001ac9190620001b0565b5090565b5b80821115620001cb576000816000905550600101620001b1565b5090565b600080fd5b600073ffffffffffffffffffffffffffffffffffffffff82169050919050565b60006200020182620001d4565b9050919050565b6200021381620001f4565b81146200021f57600080fd5b50565b600081519050620002338162000208565b92915050565b600060208284031215620002525762000251620001cf565b5b6000620002628482850162000222565b91505092915050565b7f4e487b7100000000000000000000000000000000000000000000000000000000600052602260045260246000fd5b60006002820490506001821680620002b357607f821691505b602082108103620002c957620002c86200026b565b5b50919050565b6141c580620002df6000396000f3fe608060405234801561001057600080fd5b506004361061016a576000357c0100000000000000000000000000000000000000000000000000000000900480634f6ccce7116100e0578063b88d4fde11610099578063b88d4fde146103f5578063c87b56dd14610411578063cad96cca14610441578063cb18ee7b14610471578063e985e9c5146104a1578063f5537ede146104d15761016a565b80634f6ccce7146102fa5780636352211e1461032a57806370a082311461035a5780638924af741461038a57806395d89b41146103bb578063a22cb465146103d95761016a565b806318160ddd1161013257806318160ddd1461022557806323b872dd146102435780632a55205a1461025f5780632f745c591461029057806332a2c5d0146102c057806342842e0e146102de5761016a565b806301ffc9a71461016f57806306fdde031461019f578063081812fc146101bd578063095ea7b3146101ed578063143094db14610209575b600080fd5b61018960048036038101906101849190612978565b6104ed565b60405161019691906129c0565b60405180910390f35b6101a76105e2565b6040516101b49190612a74565b60405180910390f35b6101d760048036038101906101d29190612acc565b610674565b6040516101e49190612b3a565b60405180910390f35b61020760048036038101906102029190612b81565b6106f9565b005b610223600480360381019061021e9190612c43565b610810565b005b61022d61090f565b60405161023a9190612ca5565b60405180910390f35b61025d60048036038101906102589190612cc0565b61091c565b005b61027960048036038101906102749190612d13565b61097c565b604051610287929190612d53565b60405180910390f35b6102aa60048036038101906102a59190612b81565b610b06565b6040516102b79190612ca5565b60405180910390f35b6102c8610bab565b6040516102d59190612b3a565b60405180910390f35b6102f860048036038101906102f39190612cc0565b610bd5565b005b610314600480360381019061030f9190612acc565b610bf5565b6040516103219190612ca5565b60405180910390f35b610344600480360381019061033f9190612acc565b610c66565b6040516103519190612b3a565b60405180910390f35b610374600480360381019061036f9190612d7c565b610d17565b6040516103819190612ca5565b60405180910390f35b6103a4600480360381019061039f9190612d13565b610dce565b6040516103b2929190612dc7565b60405180910390f35b6103c3610e43565b6040516103d09190612a74565b60405180910390f35b6103f360048036038101906103ee9190612e1c565b610ed5565b005b61040f600480360381019061040a9190612f91565b610eeb565b005b61042b60048036038101906104269190612acc565b610f4d565b6040516104389190612a74565b60405180910390f35b61045b60048036038101906104569190612acc565b610f5f565b6040516104689190613110565b60405180910390f35b61048b600480360381019061048691906131d3565b611061565b6040516104989190612ca5565b60405180910390f35b6104bb60048036038101906104b6919061321c565b6110c5565b6040516104c891906129c0565b60405180910390f35b6104eb60048036038101906104e69190612cc0565b611159565b005b600063cad96cca7c0100000000000000000000000000000000000000000000000000000000027bffffffffffffffffffffffffffffffffffffffffffffffffffffffff1916827bffffffffffffffffffffffffffffffffffffffffffffffffffffffff19160361056057600190506105dd565b632a55205a7c0100000000000000000000000000000000000000000000000000000000027bffffffffffffffffffffffffffffffffffffffffffffffffffffffff1916827bffffffffffffffffffffffffffffffffffffffffffffffffffffffff1916036105d157600190506105dd565b6105da826111df565b90505b919050565b6060600080546105f19061328b565b80601f016020809104026020016040519081016040528092919081815260200182805461061d9061328b565b801561066a5780601f1061063f5761010080835404028352916020019161066a565b820191906000526020600020905b81548152906001019060200180831161064d57829003601f168201915b5050505050905090565b600061067f82611259565b6106be576040517f08c379a00000000000000000000000000000000000000000000000000000000081526004016106b59061332e565b60405180910390fd5b6004600083815260200190815260200160002060009054906101000a900473ffffffffffffffffffffffffffffffffffffffff169050919050565b600061070482610c66565b90508073ffffffffffffffffffffffffffffffffffffffff168373ffffffffffffffffffffffffffffffffffffffff1603610774576040517f08c379a000000000000000000000000000000000000000000000000000000000815260040161076b906133c0565b60405180910390fd5b8073ffffffffffffffffffffffffffffffffffffffff166107936112c5565b73ffffffffffffffffffffffffffffffffffffffff1614806107c257506107c1816107bc6112c5565b6110c5565b5b610801576040517f08c379a00000000000000000000000000000000000000000000000000000000081526004016107f890613452565b60405180910390fd5b61080b83836112cd565b505050565b6000600167ffffffffffffffff81111561082d5761082c612e66565b5b60405190808252806020026020018201604052801561086657816020015b61085361282b565b81526020019060019003908161084b5790505b509050818160008151811061087e5761087d613472565b5b6020026020010151602001906bffffffffffffffffffffffff1690816bffffffffffffffffffffffff168152505082816000815181106108c1576108c0613472565b5b60200260200101516000019073ffffffffffffffffffffffffffffffffffffffff16908173ffffffffffffffffffffffffffffffffffffffff16815250506109098482611386565b50505050565b6000600980549050905090565b61092d6109276112c5565b82611583565b61096c576040517f08c379a000000000000000000000000000000000000000000000000000000000815260040161096390613513565b60405180910390fd5b610977838383611661565b505050565b6000806000600b6000868152602001908152602001600020805480602002602001604051908101604052809291908181526020016000905b82821015610a76578382906000526020600020016040518060400160405290816000820160009054906101000a900473ffffffffffffffffffffffffffffffffffffffff1673ffffffffffffffffffffffffffffffffffffffff1673ffffffffffffffffffffffffffffffffffffffff1681526020016000820160149054906101000a90046bffffffffffffffffffffffff166bffffffffffffffffffffffff166bffffffffffffffffffffffff1681525050815260200190600101906109b4565b505050509050600081511115610af65780600081518110610a9a57610a99613472565b5b60200260200101516000015161271082600081518110610abd57610abc613472565b5b6020026020010151602001516bffffffffffffffffffffffff1686610ae29190613562565b610aec91906135eb565b9250925050610aff565b60008092509250505b9250929050565b6000610b1183610d17565b8210610b52576040517f08c379a0000000000000000000000000000000000000000000000000000000008152600401610b499061368e565b60405180910390fd5b600760008473ffffffffffffffffffffffffffffffffffffffff1673ffffffffffffffffffffffffffffffffffffffff168152602001908152602001600020600083815260200190815260200160002054905092915050565b6000600d60009054906101000a900473ffffffffffffffffffffffffffffffffffffffff16905090565b610bf083838360405180602001604052806000815250610eeb565b505050565b6000610bff61090f565b8210610c40576040517f08c379a0000000000000000000000000000000000000000000000000000000008152600401610c3790613720565b60405180910390fd5b60098281548110610c5457610c53613472565b5b90600052602060002001549050919050565b6000806002600084815260200190815260200160002060009054906101000a900473ffffffffffffffffffffffffffffffffffffffff169050600073ffffffffffffffffffffffffffffffffffffffff168173ffffffffffffffffffffffffffffffffffffffff1603610d0e576040517f08c379a0000000000000000000000000000000000000000000000000000000008152600401610d05906137b2565b60405180910390fd5b80915050919050565b60008073ffffffffffffffffffffffffffffffffffffffff168273ffffffffffffffffffffffffffffffffffffffff1603610d87576040517f08c379a0000000000000000000000000000000000000000000000000000000008152600401610d7e90613844565b60405180910390fd5b600360008373ffffffffffffffffffffffffffffffffffffffff1673ffffffffffffffffffffffffffffffffffffffff168152602001908152602001600020549050919050565b600b6020528160005260406000208181548110610dea57600080fd5b90600052602060002001600091509150508060000160009054906101000a900473ffffffffffffffffffffffffffffffffffffffff16908060000160149054906101000a90046bffffffffffffffffffffffff16905082565b606060018054610e529061328b565b80601f0160208091040260200160405190810160405280929190818152602001828054610e7e9061328b565b8015610ecb5780601f10610ea057610100808354040283529160200191610ecb565b820191906000526020600020905b815481529060010190602001808311610eae57829003601f168201915b5050505050905090565b610ee7610ee06112c5565b83836118c7565b5050565b610efc610ef66112c5565b83611583565b610f3b576040517f08c379a0000000000000000000000000000000000000000000000000000000008152600401610f3290613513565b60405180910390fd5b610f4784848484611a33565b50505050565b6060610f5882611a8f565b9050919050565b6060600b6000838152602001908152602001600020805480602002602001604051908101604052809291908181526020016000905b82821015611056578382906000526020600020016040518060400160405290816000820160009054906101000a900473ffffffffffffffffffffffffffffffffffffffff1673ffffffffffffffffffffffffffffffffffffffff1673ffffffffffffffffffffffffffffffffffffffff1681526020016000820160149054906101000a90046bffffffffffffffffffffffff166bffffffffffffffffffffffff166bffffffffffffffffffffffff168152505081526020019060010190610f94565b505050509050919050565b600061106d600c611be0565b6000611079600c611bf6565b90506110853382611c04565b61108f8184611ddd565b6110bc600d60009054906101000a900473ffffffffffffffffffffffffffffffffffffffff166001610ed5565b80915050919050565b6000600560008473ffffffffffffffffffffffffffffffffffffffff1673ffffffffffffffffffffffffffffffffffffffff16815260200190815260200160002060008373ffffffffffffffffffffffffffffffffffffffff1673ffffffffffffffffffffffffffffffffffffffff16815260200190815260200160002060009054906101000a900460ff16905092915050565b8273ffffffffffffffffffffffffffffffffffffffff1661117982610c66565b73ffffffffffffffffffffffffffffffffffffffff16146111cf576040517f08c379a00000000000000000000000000000000000000000000000000000000081526004016111c6906138b0565b60405180910390fd5b6111da838383611661565b505050565b60007f780e9d63000000000000000000000000000000000000000000000000000000007bffffffffffffffffffffffffffffffffffffffffffffffffffffffff1916827bffffffffffffffffffffffffffffffffffffffffffffffffffffffff19161480611252575061125182611e51565b5b9050919050565b60008073ffffffffffffffffffffffffffffffffffffffff166002600084815260200190815260200160002060009054906101000a900473ffffffffffffffffffffffffffffffffffffffff1673ffffffffffffffffffffffffffffffffffffffff1614159050919050565b600033905090565b816004600083815260200190815260200160002060006101000a81548173ffffffffffffffffffffffffffffffffffffffff021916908373ffffffffffffffffffffffffffffffffffffffff160217905550808273ffffffffffffffffffffffffffffffffffffffff1661134083610c66565b73ffffffffffffffffffffffffffffffffffffffff167f8c5be1e5ebec7d5bd14f71427d1e84f3dd0314c0f7b2291e5b200ac8c7c3b92560405160405180910390a45050565b60005b815181101561157457600073ffffffffffffffffffffffffffffffffffffffff168282815181106113bd576113bc613472565b5b60200260200101516000015173ffffffffffffffffffffffffffffffffffffffff160361141f576040517f08c379a00000000000000000000000000000000000000000000000000000000081526004016114169061391c565b60405180910390fd5b600082828151811061143457611433613472565b5b6020026020010151602001516bffffffffffffffffffffffff160361148e576040517f08c379a000000000000000000000000000000000000000000000000000000000815260040161148590613988565b60405180910390fd5b600b60008481526020019081526020016000208282815181106114b4576114b3613472565b5b60200260200101519080600181540180825580915050600190039060005260206000200160009091909190915060008201518160000160006101000a81548173ffffffffffffffffffffffffffffffffffffffff021916908373ffffffffffffffffffffffffffffffffffffffff16021790555060208201518160000160146101000a8154816bffffffffffffffffffffffff02191690836bffffffffffffffffffffffff1602179055505050808061156c906139a8565b915050611389565b5061157f8282611f33565b5050565b600061158e82611259565b6115cd576040517f08c379a00000000000000000000000000000000000000000000000000000000081526004016115c490613a62565b60405180910390fd5b60006115d883610c66565b90508073ffffffffffffffffffffffffffffffffffffffff168473ffffffffffffffffffffffffffffffffffffffff16148061164757508373ffffffffffffffffffffffffffffffffffffffff1661162f84610674565b73ffffffffffffffffffffffffffffffffffffffff16145b80611658575061165781856110c5565b5b91505092915050565b8273ffffffffffffffffffffffffffffffffffffffff1661168182610c66565b73ffffffffffffffffffffffffffffffffffffffff16146116d7576040517f08c379a00000000000000000000000000000000000000000000000000000000081526004016116ce90613af4565b60405180910390fd5b600073ffffffffffffffffffffffffffffffffffffffff168273ffffffffffffffffffffffffffffffffffffffff1603611746576040517f08c379a000000000000000000000000000000000000000000000000000000000815260040161173d90613b86565b60405180910390fd5b611751838383611f70565b61175c6000826112cd565b6001600360008573ffffffffffffffffffffffffffffffffffffffff1673ffffffffffffffffffffffffffffffffffffffff16815260200190815260200160002060008282546117ac9190613ba6565b925050819055506001600360008473ffffffffffffffffffffffffffffffffffffffff1673ffffffffffffffffffffffffffffffffffffffff16815260200190815260200160002060008282546118039190613bda565b92505081905550816002600083815260200190815260200160002060006101000a81548173ffffffffffffffffffffffffffffffffffffffff021916908373ffffffffffffffffffffffffffffffffffffffff160217905550808273ffffffffffffffffffffffffffffffffffffffff168473ffffffffffffffffffffffffffffffffffffffff167fddf252ad1be2c89b69c2b068fc378daa952ba7f163c4a11628f55a4df523b3ef60405160405180910390a46118c2838383611f80565b505050565b8173ffffffffffffffffffffffffffffffffffffffff168373ffffffffffffffffffffffffffffffffffffffff1603611935576040517f08c379a000000000000000000000000000000000000000000000000000000000815260040161192c90613c7c565b60405180910390fd5b80600560008573ffffffffffffffffffffffffffffffffffffffff1673ffffffffffffffffffffffffffffffffffffffff16815260200190815260200160002060008473ffffffffffffffffffffffffffffffffffffffff1673ffffffffffffffffffffffffffffffffffffffff16815260200190815260200160002060006101000a81548160ff0219169083151502179055508173ffffffffffffffffffffffffffffffffffffffff168373ffffffffffffffffffffffffffffffffffffffff167f17307eab39ab6107e8899845ad3d59bd9653f200f220920489ca2b5937696c3183604051611a2691906129c0565b60405180910390a3505050565b611a3e848484611661565b611a4a84848484611f85565b611a89576040517f08c379a0000000000000000000000000000000000000000000000000000000008152600401611a8090613d0e565b60405180910390fd5b50505050565b6060611a9a82611259565b611ad9576040517f08c379a0000000000000000000000000000000000000000000000000000000008152600401611ad090613da0565b60405180910390fd5b6000600660008481526020019081526020016000208054611af99061328b565b80601f0160208091040260200160405190810160405280929190818152602001828054611b259061328b565b8015611b725780601f10611b4757610100808354040283529160200191611b72565b820191906000526020600020905b815481529060010190602001808311611b5557829003601f168201915b505050505090506000611b83612144565b90506000815103611b98578192505050611bdb565b600082511115611bcd578082604051602001611bb5929190613dfc565b60405160208183030381529060405292505050611bdb565b611bd68461215b565b925050505b919050565b6001816000016000828254019250508190555050565b600081600001549050919050565b600073ffffffffffffffffffffffffffffffffffffffff168273ffffffffffffffffffffffffffffffffffffffff1603611c73576040517f08c379a0000000000000000000000000000000000000000000000000000000008152600401611c6a90613e6c565b60405180910390fd5b611c7c81611259565b15611cbc576040517f08c379a0000000000000000000000000000000000000000000000000000000008152600401611cb390613ed8565b60405180910390fd5b611cc860008383611f70565b6001600360008473ffffffffffffffffffffffffffffffffffffffff1673ffffffffffffffffffffffffffffffffffffffff1681526020019081526020016000206000828254611d189190613bda565b92505081905550816002600083815260200190815260200160002060006101000a81548173ffffffffffffffffffffffffffffffffffffffff021916908373ffffffffffffffffffffffffffffffffffffffff160217905550808273ffffffffffffffffffffffffffffffffffffffff16600073ffffffffffffffffffffffffffffffffffffffff167fddf252ad1be2c89b69c2b068fc378daa952ba7f163c4a11628f55a4df523b3ef60405160405180910390a4611dd960008383611f80565b5050565b611de682611259565b611e25576040517f08c379a0000000000000000000000000000000000000000000000000000000008152600401611e1c90613f6a565b60405180910390fd5b80600660008481526020019081526020016000209080519060200190611e4c929190612869565b505050565b60007f80ac58cd000000000000000000000000000000000000000000000000000000007bffffffffffffffffffffffffffffffffffffffffffffffffffffffff1916827bffffffffffffffffffffffffffffffffffffffffffffffffffffffff19161480611f1c57507f5b5e139f000000000000000000000000000000000000000000000000000000007bffffffffffffffffffffffffffffffffffffffffffffffffffffffff1916827bffffffffffffffffffffffffffffffffffffffffffffffffffffffff1916145b80611f2c5750611f2b82612202565b5b9050919050565b7f3fa96d7b6bcbfe71ef171666d84db3cf52fa2d1c8afdb1cc8e486177f208b7df8282604051611f64929190613f8a565b60405180910390a15050565b611f7b83838361226c565b505050565b505050565b6000611fa68473ffffffffffffffffffffffffffffffffffffffff1661237e565b15612137578373ffffffffffffffffffffffffffffffffffffffff1663150b7a02611fcf6112c5565b8786866040518563ffffffff167c010000000000000000000000000000000000000000000000000000000002815260040161200d949392919061400f565b6020604051808303816000875af192505050801561204957506040513d601f19601f820116820180604052508101906120469190614070565b60015b6120cb573d8060008114612079576040519150601f19603f3d011682016040523d82523d6000602084013e61207e565b606091505b5060008151036120c3576040517f08c379a00000000000000000000000000000000000000000000000000000000081526004016120ba90613d0e565b60405180910390fd5b805181602001fd5b63150b7a027c0100000000000000000000000000000000000000000000000000000000027bffffffffffffffffffffffffffffffffffffffffffffffffffffffff1916817bffffffffffffffffffffffffffffffffffffffffffffffffffffffff19161491505061213c565b600190505b949350505050565b606060405180602001604052806000815250905090565b606061216682611259565b6121a5576040517f08c379a000000000000000000000000000000000000000000000000000000000815260040161219c9061410f565b60405180910390fd5b60006121af612144565b905060008151116121cf57604051806020016040528060008152506121fa565b806121d9846123a1565b6040516020016121ea929190613dfc565b6040516020818303038152906040525b915050919050565b60007f01ffc9a7000000000000000000000000000000000000000000000000000000007bffffffffffffffffffffffffffffffffffffffffffffffffffffffff1916827bffffffffffffffffffffffffffffffffffffffffffffffffffffffff1916149050919050565b612277838383612520565b600073ffffffffffffffffffffffffffffffffffffffff168373ffffffffffffffffffffffffffffffffffffffff16036122b9576122b481612525565b6122f8565b8173ffffffffffffffffffffffffffffffffffffffff168373ffffffffffffffffffffffffffffffffffffffff16146122f7576122f6838261256e565b5b5b600073ffffffffffffffffffffffffffffffffffffffff168273ffffffffffffffffffffffffffffffffffffffff160361233a57612335816126db565b612379565b8273ffffffffffffffffffffffffffffffffffffffff168273ffffffffffffffffffffffffffffffffffffffff16146123785761237782826127ac565b5b5b505050565b6000808273ffffffffffffffffffffffffffffffffffffffff163b119050919050565b6060600082036123e8576040518060400160405280600181526020017f3000000000000000000000000000000000000000000000000000000000000000815250905061251b565b600082905060005b6000821461241a578080612403906139a8565b915050600a8261241391906135eb565b91506123f0565b60008167ffffffffffffffff81111561243657612435612e66565b5b6040519080825280601f01601f1916602001820160405280156124685781602001600182028036833780820191505090505b5090505b60008514612514576001826124819190613ba6565b9150600a85612490919061412f565b603061249c9190613bda565b7f0100000000000000000000000000000000000000000000000000000000000000028183815181106124d1576124d0613472565b5b60200101907effffffffffffffffffffffffffffffffffffffffffffffffffffffffffffff1916908160001a905350600a8561250d91906135eb565b945061246c565b8093505050505b919050565b505050565b600980549050600a600083815260200190815260200160002081905550600981908060018154018082558091505060019003906000526020600020016000909190919091505550565b6000600161257b84610d17565b6125859190613ba6565b905060006008600084815260200190815260200160002054905081811461266a576000600760008673ffffffffffffffffffffffffffffffffffffffff1673ffffffffffffffffffffffffffffffffffffffff168152602001908152602001600020600084815260200190815260200160002054905080600760008773ffffffffffffffffffffffffffffffffffffffff1673ffffffffffffffffffffffffffffffffffffffff168152602001908152602001600020600084815260200190815260200160002081905550816008600083815260200190815260200160002081905550505b6008600084815260200190815260200160002060009055600760008573ffffffffffffffffffffffffffffffffffffffff1673ffffffffffffffffffffffffffffffffffffffff16815260200190815260200160002060008381526020019081526020016000206000905550505050565b600060016009805490506126ef9190613ba6565b90506000600a600084815260200190815260200160002054905060006009838154811061271f5761271e613472565b5b90600052602060002001549050806009838154811061274157612740613472565b5b906000526020600020018190555081600a600083815260200190815260200160002081905550600a60008581526020019081526020016000206000905560098054806127905761278f614160565b5b6001900381819060005260206000200160009055905550505050565b60006127b783610d17565b905081600760008573ffffffffffffffffffffffffffffffffffffffff1673ffffffffffffffffffffffffffffffffffffffff168152602001908152602001600020600083815260200190815260200160002081905550806008600084815260200190815260200160002081905550505050565b6040518060400160405280600073ffffffffffffffffffffffffffffffffffffffff16815260200160006bffffffffffffffffffffffff1681525090565b8280546128759061328b565b90600052602060002090601f01602090048101928261289757600085556128de565b82601f106128b057805160ff19168380011785556128de565b828001600101855582156128de579182015b828111156128dd5782518255916020019190600101906128c2565b5b5090506128eb91906128ef565b5090565b5b808211156129085760008160009055506001016128f0565b5090565b6000604051905090565b600080fd5b600080fd5b60007fffffffff0000000000000000000000000000000000000000000000000000000082169050919050565b61295581612920565b811461296057600080fd5b50565b6000813590506129728161294c565b92915050565b60006020828403121561298e5761298d612916565b5b600061299c84828501612963565b91505092915050565b60008115159050919050565b6129ba816129a5565b82525050565b60006020820190506129d560008301846129b1565b92915050565b600081519050919050565b600082825260208201905092915050565b60005b83811015612a155780820151818401526020810190506129fa565b83811115612a24576000848401525b50505050565b6000601f19601f8301169050919050565b6000612a46826129db565b612a5081856129e6565b9350612a608185602086016129f7565b612a6981612a2a565b840191505092915050565b60006020820190508181036000830152612a8e8184612a3b565b905092915050565b6000819050919050565b612aa981612a96565b8114612ab457600080fd5b50565b600081359050612ac681612aa0565b92915050565b600060208284031215612ae257612ae1612916565b5b6000612af084828501612ab7565b91505092915050565b600073ffffffffffffffffffffffffffffffffffffffff82169050919050565b6000612b2482612af9565b9050919050565b612b3481612b19565b82525050565b6000602082019050612b4f6000830184612b2b565b92915050565b612b5e81612b19565b8114612b6957600080fd5b50565b600081359050612b7b81612b55565b92915050565b60008060408385031215612b9857612b97612916565b5b6000612ba685828601612b6c565b9250506020612bb785828601612ab7565b9150509250929050565b6000612bcc82612af9565b9050919050565b612bdc81612bc1565b8114612be757600080fd5b50565b600081359050612bf981612bd3565b92915050565b60006bffffffffffffffffffffffff82169050919050565b612c2081612bff565b8114612c2b57600080fd5b50565b600081359050612c3d81612c17565b92915050565b600080600060608486031215612c5c57612c5b612916565b5b6000612c6a86828701612ab7565b9350506020612c7b86828701612bea565b9250506040612c8c86828701612c2e565b9150509250925092565b612c9f81612a96565b82525050565b6000602082019050612cba6000830184612c96565b92915050565b600080600060608486031215612cd957612cd8612916565b5b6000612ce786828701612b6c565b9350506020612cf886828701612b6c565b9250506040612d0986828701612ab7565b9150509250925092565b60008060408385031215612d2a57612d29612916565b5b6000612d3885828601612ab7565b9250506020612d4985828601612ab7565b9150509250929050565b6000604082019050612d686000830185612b2b565b612d756020830184612c96565b9392505050565b600060208284031215612d9257612d91612916565b5b6000612da084828501612b6c565b91505092915050565b612db281612bc1565b82525050565b612dc181612bff565b82525050565b6000604082019050612ddc6000830185612da9565b612de96020830184612db8565b9392505050565b612df9816129a5565b8114612e0457600080fd5b50565b600081359050612e1681612df0565b92915050565b60008060408385031215612e3357612e32612916565b5b6000612e4185828601612b6c565b9250506020612e5285828601612e07565b9150509250929050565b600080fd5b600080fd5b7f4e487b7100000000000000000000000000000000000000000000000000000000600052604160045260246000fd5b612e9e82612a2a565b810181811067ffffffffffffffff82111715612ebd57612ebc612e66565b5b80604052505050565b6000612ed061290c565b9050612edc8282612e95565b919050565b600067ffffffffffffffff821115612efc57612efb612e66565b5b612f0582612a2a565b9050602081019050919050565b82818337600083830152505050565b6000612f34612f2f84612ee1565b612ec6565b905082815260208101848484011115612f5057612f4f612e61565b5b612f5b848285612f12565b509392505050565b600082601f830112612f7857612f77612e5c565b5b8135612f88848260208601612f21565b91505092915050565b60008060008060808587031215612fab57612faa612916565b5b6000612fb987828801612b6c565b9450506020612fca87828801612b6c565b9350506040612fdb87828801612ab7565b925050606085013567ffffffffffffffff811115612ffc57612ffb61291b565b5b61300887828801612f63565b91505092959194509250565b600081519050919050565b600082825260208201905092915050565b6000819050602082019050919050565b61304981612bc1565b82525050565b61305881612bff565b82525050565b6040820160008201516130746000850182613040565b506020820151613087602085018261304f565b50505050565b6000613099838361305e565b60408301905092915050565b6000602082019050919050565b60006130bd82613014565b6130c7818561301f565b93506130d283613030565b8060005b838110156131035781516130ea888261308d565b97506130f5836130a5565b9250506001810190506130d6565b5085935050505092915050565b6000602082019050818103600083015261312a81846130b2565b905092915050565b600067ffffffffffffffff82111561314d5761314c612e66565b5b61315682612a2a565b9050602081019050919050565b600061317661317184613132565b612ec6565b90508281526020810184848401111561319257613191612e61565b5b61319d848285612f12565b509392505050565b600082601f8301126131ba576131b9612e5c565b5b81356131ca848260208601613163565b91505092915050565b6000602082840312156131e9576131e8612916565b5b600082013567ffffffffffffffff8111156132075761320661291b565b5b613213848285016131a5565b91505092915050565b6000806040838503121561323357613232612916565b5b600061324185828601612b6c565b925050602061325285828601612b6c565b9150509250929050565b7f4e487b7100000000000000000000000000000000000000000000000000000000600052602260045260246000fd5b600060028204905060018216806132a357607f821691505b6020821081036132b6576132b561325c565b5b50919050565b7f4552433732313a20617070726f76656420717565727920666f72206e6f6e657860008201527f697374656e7420746f6b656e0000000000000000000000000000000000000000602082015250565b6000613318602c836129e6565b9150613323826132bc565b604082019050919050565b600060208201905081810360008301526133478161330b565b9050919050565b7f4552433732313a20617070726f76616c20746f2063757272656e74206f776e6560008201527f7200000000000000000000000000000000000000000000000000000000000000602082015250565b60006133aa6021836129e6565b91506133b58261334e565b604082019050919050565b600060208201905081810360008301526133d98161339d565b9050919050565b7f4552433732313a20617070726f76652063616c6c6572206973206e6f74206f7760008201527f6e6572206e6f7220617070726f76656420666f7220616c6c0000000000000000602082015250565b600061343c6038836129e6565b9150613447826133e0565b604082019050919050565b6000602082019050818103600083015261346b8161342f565b9050919050565b7f4e487b7100000000000000000000000000000000000000000000000000000000600052603260045260246000fd5b7f4552433732313a207472616e736665722063616c6c6572206973206e6f74206f60008201527f776e6572206e6f7220617070726f766564000000000000000000000000000000602082015250565b60006134fd6031836129e6565b9150613508826134a1565b604082019050919050565b6000602082019050818103600083015261352c816134f0565b9050919050565b7f4e487b7100000000000000000000000000000000000000000000000000000000600052601160045260246000fd5b600061356d82612a96565b915061357883612a96565b9250817fffffffffffffffffffffffffffffffffffffffffffffffffffffffffffffffff04831182151516156135b1576135b0613533565b5b828202905092915050565b7f4e487b7100000000000000000000000000000000000000000000000000000000600052601260045260246000fd5b60006135f682612a96565b915061360183612a96565b925082613611576136106135bc565b5b828204905092915050565b7f455243373231456e756d657261626c653a206f776e657220696e646578206f7560008201527f74206f6620626f756e6473000000000000000000000000000000000000000000602082015250565b6000613678602b836129e6565b91506136838261361c565b604082019050919050565b600060208201905081810360008301526136a78161366b565b9050919050565b7f455243373231456e756d657261626c653a20676c6f62616c20696e646578206f60008201527f7574206f6620626f756e64730000000000000000000000000000000000000000602082015250565b600061370a602c836129e6565b9150613715826136ae565b604082019050919050565b60006020820190508181036000830152613739816136fd565b9050919050565b7f4552433732313a206f776e657220717565727920666f72206e6f6e657869737460008201527f656e7420746f6b656e0000000000000000000000000000000000000000000000602082015250565b600061379c6029836129e6565b91506137a782613740565b604082019050919050565b600060208201905081810360008301526137cb8161378f565b9050919050565b7f4552433732313a2062616c616e636520717565727920666f7220746865207a6560008201527f726f206164647265737300000000000000000000000000000000000000000000602082015250565b600061382e602a836129e6565b9150613839826137d2565b604082019050919050565b6000602082019050818103600083015261385d81613821565b9050919050565b7f46726f6d2061646472657373206d75737420626520746f6b656e206f776e6572600082015250565b600061389a6020836129e6565b91506138a582613864565b602082019050919050565b600060208201905081810360008301526138c98161388d565b9050919050565b7f526563697069656e742073686f756c642062652070726573656e740000000000600082015250565b6000613906601b836129e6565b9150613911826138d0565b602082019050919050565b60006020820190508181036000830152613935816138f9565b9050919050565b7f526f79616c74792076616c75652073686f756c6420626520706f736974697665600082015250565b60006139726020836129e6565b915061397d8261393c565b602082019050919050565b600060208201905081810360008301526139a181613965565b9050919050565b60006139b382612a96565b91507fffffffffffffffffffffffffffffffffffffffffffffffffffffffffffffffff82036139e5576139e4613533565b5b600182019050919050565b7f4552433732313a206f70657261746f7220717565727920666f72206e6f6e657860008201527f697374656e7420746f6b656e0000000000000000000000000000000000000000602082015250565b6000613a4c602c836129e6565b9150613a57826139f0565b604082019050919050565b60006020820190508181036000830152613a7b81613a3f565b9050919050565b7f4552433732313a207472616e736665722066726f6d20696e636f72726563742060008201527f6f776e6572000000000000000000000000000000000000000000000000000000602082015250565b6000613ade6025836129e6565b9150613ae982613a82565b604082019050919050565b60006020820190508181036000830152613b0d81613ad1565b9050919050565b7f4552433732313a207472616e7366657220746f20746865207a65726f2061646460008201527f7265737300000000000000000000000000000000000000000000000000000000602082015250565b6000613b706024836129e6565b9150613b7b82613b14565b604082019050919050565b60006020820190508181036000830152613b9f81613b63565b9050919050565b6000613bb182612a96565b9150613bbc83612a96565b925082821015613bcf57613bce613533565b5b828203905092915050565b6000613be582612a96565b9150613bf083612a96565b9250827fffffffffffffffffffffffffffffffffffffffffffffffffffffffffffffffff03821115613c2557613c24613533565b5b828201905092915050565b7f4552433732313a20617070726f766520746f2063616c6c657200000000000000600082015250565b6000613c666019836129e6565b9150613c7182613c30565b602082019050919050565b60006020820190508181036000830152613c9581613c59565b9050919050565b7f4552433732313a207472616e7366657220746f206e6f6e20455243373231526560008201527f63656976657220696d706c656d656e7465720000000000000000000000000000602082015250565b6000613cf86032836129e6565b9150613d0382613c9c565b604082019050919050565b60006020820190508181036000830152613d2781613ceb565b9050919050565b7f45524337323155524953746f726167653a2055524920717565727920666f722060008201527f6e6f6e6578697374656e7420746f6b656e000000000000000000000000000000602082015250565b6000613d8a6031836129e6565b9150613d9582613d2e565b604082019050919050565b60006020820190508181036000830152613db981613d7d565b9050919050565b600081905092915050565b6000613dd6826129db565b613de08185613dc0565b9350613df08185602086016129f7565b80840191505092915050565b6000613e088285613dcb565b9150613e148284613dcb565b91508190509392505050565b7f4552433732313a206d696e7420746f20746865207a65726f2061646472657373600082015250565b6000613e566020836129e6565b9150613e6182613e20565b602082019050919050565b60006020820190508181036000830152613e8581613e49565b9050919050565b7f4552433732313a20746f6b656e20616c7265616479206d696e74656400000000600082015250565b6000613ec2601c836129e6565b9150613ecd82613e8c565b602082019050919050565b60006020820190508181036000830152613ef181613eb5565b9050919050565b7f45524337323155524953746f726167653a2055524920736574206f66206e6f6e60008201527f6578697374656e7420746f6b656e000000000000000000000000000000000000602082015250565b6000613f54602e836129e6565b9150613f5f82613ef8565b604082019050919050565b60006020820190508181036000830152613f8381613f47565b9050919050565b6000604082019050613f9f6000830185612c96565b8181036020830152613fb181846130b2565b90509392505050565b600081519050919050565b600082825260208201905092915050565b6000613fe182613fba565b613feb8185613fc5565b9350613ffb8185602086016129f7565b61400481612a2a565b840191505092915050565b60006080820190506140246000830187612b2b565b6140316020830186612b2b565b61403e6040830185612c96565b81810360608301526140508184613fd6565b905095945050505050565b60008151905061406a8161294c565b92915050565b60006020828403121561408657614085612916565b5b60006140948482850161405b565b91505092915050565b7f4552433732314d657461646174613a2055524920717565727920666f72206e6f60008201527f6e6578697374656e7420746f6b656e0000000000000000000000000000000000602082015250565b60006140f9602f836129e6565b91506141048261409d565b604082019050919050565b60006020820190508181036000830152614128816140ec565b9050919050565b600061413a82612a96565b915061414583612a96565b925082614155576141546135bc565b5b828206905092915050565b7f4e487b7100000000000000000000000000000000000000000000000000000000600052603160045260246000fdfea2646970667358221220829c17aa63951939a668da25c19f56cdb23d9b7eb48b13a86b57688f24aacd2664736f6c634300080d0033",
  "immutableReferences": {},
  "source": "// SPDX-License-Identifier: MIT\npragma solidity >=0.4.22 <0.9.0;\n\nimport \"@openzeppelin/contracts/utils/Counters.sol\";\nimport \"@openzeppelin/contracts/token/ERC721/extensions/ERC721URIStorage.sol\";\nimport \"@openzeppelin/contracts/token/ERC721/extensions/ERC721Enumerable.sol\";\nimport \"@openzeppelin/contracts/token/ERC721/ERC721.sol\";\n\n// Ownable is needed to setup sales royalties on Open Sea\n//if you are the owner of the contract you can configure sales Royalties in the Open Sea website\nimport \"@openzeppelin/contracts/access/Ownable.sol\";\n//the rarible dependency files are needed to setup sales royalties on Rarible\nimport \"./@rarible/royalties/contracts/impl/RoyaltiesV2Impl.sol\";\nimport \"./@rarible/royalties/contracts/LibPart.sol\";\nimport \"./@rarible/royalties/contracts/LibRoyaltiesV2.sol\";\n\ncontract NFT is ERC721URIStorage, ERC721Enumerable, RoyaltiesV2Impl {\n    using Counters for Counters.Counter;\n    Counters.Counter private nftTokenId;\n    bytes4 private constant _INTERFACE_ID_ERC2981 = 0x2a55205a;\n\n    address contractAddress;\n\n    constructor(address marketplaceAddress) ERC721(\"ODONNFT\", \"BC\") {\n        contractAddress = marketplaceAddress;\n    }\n\n    function _beforeTokenTransfer(\n        address from,\n        address to,\n        uint256 amount\n    ) internal override(ERC721, ERC721Enumerable) {\n        super._beforeTokenTransfer(from, to, amount);\n    }\n\n    function _burn(uint256 tokenId)\n        internal\n        override(ERC721, ERC721URIStorage)\n    {\n        super._burn(tokenId);\n    }\n\n    /// @notice Returns a token's URI\n    /// @dev See {IERC721Metadata-tokenURI}.\n    /// @param tokenId - the id of the token whose URI to return\n    /// @return a string containing an URI pointing to the token's ressource\n    function tokenURI(uint256 tokenId)\n        public\n        view\n        override(ERC721, ERC721URIStorage)\n        returns (string memory)\n    {\n        return super.tokenURI(tokenId);\n    }\n\n    function createNFtToken(string memory nftTokenURl)\n        public\n        returns (uint256)\n    {\n        nftTokenId.increment();\n        uint256 id = nftTokenId.current();\n        _mint(msg.sender, id);\n\n        _setTokenURI(id, nftTokenURl);\n\n        setApprovalForAll(contractAddress, true);\n\n        return id;\n    }\n\n    //configure royalties for Rariable\n    function setRoyalties(\n        uint256 _tokenId,\n        address payable _royaltiesRecipientAddress,\n        uint96 _percentageBasisPoints\n    ) public {\n        LibPart.Part[] memory _royalties = new LibPart.Part[](1);\n        _royalties[0].value = _percentageBasisPoints;\n        _royalties[0].account = _royaltiesRecipientAddress;\n        _saveRoyalties(_tokenId, _royalties);\n    }\n\n    //configure royalties for Mintable using the ERC2981 standard\n    function royaltyInfo(uint256 _tokenId, uint256 _salePrice)\n        external\n        view\n        returns (address receiver, uint256 royaltyAmount)\n    {\n        //use the same royalties that were saved for Rariable\n        LibPart.Part[] memory _royalties = royalties[_tokenId];\n        if (_royalties.length > 0) {\n            return (\n                _royalties[0].account,\n                (_salePrice * _royalties[0].value) / 10000\n            );\n        }\n        return (address(0), 0);\n    }\n\n    function supportsInterface(bytes4 interfaceId)\n        public\n        view\n        virtual\n        override(ERC721,ERC721Enumerable)\n        returns (bool)\n    {\n        if (interfaceId == LibRoyaltiesV2._INTERFACE_ID_ROYALTIES) {\n            return true;\n        }\n\n        if (interfaceId == _INTERFACE_ID_ERC2981) {\n            return true;\n        }\n\n        return super.supportsInterface(interfaceId);\n    }\n\n    //Transfate nft after\n\n    function transferToken(\n        address from,\n        address to,\n        uint256 tokenId\n    ) external {\n        require(ownerOf(tokenId) == from, \"From address must be token owner\");\n        _transfer(from, to, tokenId);\n    }\n\n    function getContractAddress() public view returns (address) {\n        return contractAddress;\n    }\n}\n",
  "sourcePath": "E:\\BlockChainTutorial\\deployWithTruffle\\contracts\\NFT.sol",
  "compiler": {
    "name": "solc",
    "version": "0.8.13+commit.abaa5c0e.Emscripten.clang"
  },
  "schemaVersion": "3.4.7",
  "updatedAt": "2022-04-15T09:24:18.276Z",
  "networkType": "ethereum",
  "devdoc": {
    "kind": "dev",
    "methods": {
      "approve(address,uint256)": {
        "details": "See {IERC721-approve}."
      },
      "balanceOf(address)": {
        "details": "See {IERC721-balanceOf}."
      },
      "getApproved(uint256)": {
        "details": "See {IERC721-getApproved}."
      },
      "isApprovedForAll(address,address)": {
        "details": "See {IERC721-isApprovedForAll}."
      },
      "name()": {
        "details": "See {IERC721Metadata-name}."
      },
      "ownerOf(uint256)": {
        "details": "See {IERC721-ownerOf}."
      },
      "safeTransferFrom(address,address,uint256)": {
        "details": "See {IERC721-safeTransferFrom}."
      },
      "safeTransferFrom(address,address,uint256,bytes)": {
        "details": "See {IERC721-safeTransferFrom}."
      },
      "setApprovalForAll(address,bool)": {
        "details": "See {IERC721-setApprovalForAll}."
      },
      "symbol()": {
        "details": "See {IERC721Metadata-symbol}."
      },
      "tokenByIndex(uint256)": {
        "details": "See {IERC721Enumerable-tokenByIndex}."
      },
      "tokenOfOwnerByIndex(address,uint256)": {
        "details": "See {IERC721Enumerable-tokenOfOwnerByIndex}."
      },
      "tokenURI(uint256)": {
        "details": "See {IERC721Metadata-tokenURI}.",
        "params": {
          "tokenId": "- the id of the token whose URI to return"
        },
        "returns": {
          "_0": "a string containing an URI pointing to the token's ressource"
        }
      },
      "totalSupply()": {
        "details": "See {IERC721Enumerable-totalSupply}."
      },
      "transferFrom(address,address,uint256)": {
        "details": "See {IERC721-transferFrom}."
      }
    },
    "version": 1
  },
  "userdoc": {
    "kind": "user",
    "methods": {
      "tokenURI(uint256)": {
        "notice": "Returns a token's URI"
      }
    },
    "version": 1
  }
}