{
  "contractName": "NFTMarketPlace",
  "abi": [
    {
      "inputs": [],
      "stateMutability": "nonpayable",
      "type": "constructor"
    },
    {
      "anonymous": false,
      "inputs": [
        {
          "indexed": false,
          "internalType": "uint256",
          "name": "id",
          "type": "uint256"
        }
      ],
      "name": "MarketItemDeleted",
      "type": "event"
    },
    {
      "anonymous": false,
      "inputs": [
        {
          "indexed": true,
          "internalType": "address",
          "name": "nftContract",
          "type": "address"
        },
        {
          "indexed": true,
          "internalType": "uint256",
          "name": "id",
          "type": "uint256"
        },
        {
          "indexed": false,
          "internalType": "uint256",
          "name": "tokenId",
          "type": "uint256"
        },
        {
          "indexed": false,
          "internalType": "address",
          "name": "creator",
          "type": "address"
        },
        {
          "indexed": false,
          "internalType": "address",
          "name": "seller",
          "type": "address"
        },
        {
          "indexed": false,
          "internalType": "address",
          "name": "owner",
          "type": "address"
        },
        {
          "indexed": false,
          "internalType": "address",
          "name": "admin",
          "type": "address"
        },
        {
          "indexed": false,
          "internalType": "uint256",
          "name": "price",
          "type": "uint256"
        },
        {
          "indexed": false,
          "internalType": "int32",
          "name": "royalty",
          "type": "int32"
        },
        {
          "indexed": false,
          "internalType": "bool",
          "name": "sold",
          "type": "bool"
        },
        {
          "indexed": false,
          "internalType": "address",
          "name": "oldOwner",
          "type": "address"
        },
        {
          "indexed": false,
          "internalType": "address",
          "name": "oldSeller",
          "type": "address"
        },
        {
          "indexed": false,
          "internalType": "uint256",
          "name": "oldPrice",
          "type": "uint256"
        },
        {
          "indexed": false,
          "internalType": "bool",
          "name": "isResell",
          "type": "bool"
        }
      ],
      "name": "NftMarketItemCreated",
      "type": "event"
    },
    {
      "anonymous": false,
      "inputs": [
        {
          "indexed": true,
          "internalType": "uint256",
          "name": "itemId",
          "type": "uint256"
        }
      ],
      "name": "ProductListed",
      "type": "event"
    },
    {
      "anonymous": false,
      "inputs": [
        {
          "indexed": true,
          "internalType": "uint256",
          "name": "id",
          "type": "uint256"
        },
        {
          "indexed": true,
          "internalType": "address",
          "name": "nftContract",
          "type": "address"
        },
        {
          "indexed": true,
          "internalType": "uint256",
          "name": "tokenId",
          "type": "uint256"
        },
        {
          "indexed": false,
          "internalType": "address",
          "name": "creator",
          "type": "address"
        },
        {
          "indexed": false,
          "internalType": "address",
          "name": "seller",
          "type": "address"
        },
        {
          "indexed": false,
          "internalType": "address",
          "name": "owner",
          "type": "address"
        },
        {
          "indexed": false,
          "internalType": "uint256",
          "name": "price",
          "type": "uint256"
        },
        {
          "indexed": false,
          "internalType": "address",
          "name": "oldOwner",
          "type": "address"
        },
        {
          "indexed": false,
          "internalType": "address",
          "name": "oldSeller",
          "type": "address"
        },
        {
          "indexed": false,
          "internalType": "uint256",
          "name": "oldPrice",
          "type": "uint256"
        },
        {
          "indexed": false,
          "internalType": "bool",
          "name": "isResell",
          "type": "bool"
        }
      ],
      "name": "ProductSold",
      "type": "event"
    },
    {
      "anonymous": false,
      "inputs": [
        {
          "indexed": true,
          "internalType": "uint256",
          "name": "id",
          "type": "uint256"
        },
        {
          "indexed": true,
          "internalType": "uint256",
          "name": "newPrice",
          "type": "uint256"
        },
        {
          "indexed": false,
          "internalType": "bool",
          "name": "sold",
          "type": "bool"
        },
        {
          "indexed": false,
          "internalType": "address",
          "name": "owner",
          "type": "address"
        },
        {
          "indexed": false,
          "internalType": "address",
          "name": "seller",
          "type": "address"
        }
      ],
      "name": "ProductUpdated",
      "type": "event"
    },
    {
      "inputs": [],
      "name": "gettheMarketFees",
      "outputs": [
        {
          "internalType": "uint256",
          "name": "",
          "type": "uint256"
        }
      ],
      "stateMutability": "view",
      "type": "function",
      "constant": true
    },
    {
      "inputs": [
        {
          "internalType": "address",
          "name": "nftContract",
          "type": "address"
        },
        {
          "internalType": "uint256",
          "name": "tokenId",
          "type": "uint256"
        },
        {
          "internalType": "uint256",
          "name": "price",
          "type": "uint256"
        },
        {
          "internalType": "int32",
          "name": "royalty",
          "type": "int32"
        }
      ],
      "name": "createItemForSale",
      "outputs": [],
      "stateMutability": "payable",
      "type": "function",
      "payable": true
    },
    {
      "inputs": [
        {
          "internalType": "address",
          "name": "nftContract",
          "type": "address"
        },
        {
          "internalType": "uint256",
          "name": "id",
          "type": "uint256"
        },
        {
          "internalType": "uint256",
          "name": "tokenId",
          "type": "uint256"
        }
      ],
      "name": "updateMarketItem",
      "outputs": [],
      "stateMutability": "payable",
      "type": "function",
      "payable": true
    },
    {
      "inputs": [
        {
          "internalType": "address",
          "name": "nftContract",
          "type": "address"
        },
        {
          "internalType": "uint256",
          "name": "nftItemId",
          "type": "uint256"
        }
      ],
      "name": "createMarketForSale",
      "outputs": [],
      "stateMutability": "payable",
      "type": "function",
      "payable": true
    },
    {
      "inputs": [
        {
          "internalType": "address",
          "name": "nftContract",
          "type": "address"
        },
        {
          "internalType": "uint256",
          "name": "nftItemId",
          "type": "uint256"
        }
      ],
      "name": "cancelResellWitholdPrice",
      "outputs": [],
      "stateMutability": "payable",
      "type": "function",
      "payable": true
    },
    {
      "inputs": [
        {
          "internalType": "address",
          "name": "nftContract",
          "type": "address"
        },
        {
          "internalType": "uint256",
          "name": "itemid",
          "type": "uint256"
        },
        {
          "internalType": "uint256",
          "name": "newPrice",
          "type": "uint256"
        }
      ],
      "name": "putItemToResell",
      "outputs": [],
      "stateMutability": "payable",
      "type": "function",
      "payable": true
    },
    {
      "inputs": [
        {
          "internalType": "uint256",
          "name": "id",
          "type": "uint256"
        }
      ],
      "name": "fetchSingleItem",
      "outputs": [
        {
          "components": [
            {
              "internalType": "address",
              "name": "nftContract",
              "type": "address"
            },
            {
              "internalType": "uint256",
              "name": "id",
              "type": "uint256"
            },
            {
              "internalType": "uint256",
              "name": "tokenId",
              "type": "uint256"
            },
            {
              "internalType": "address payable",
              "name": "creator",
              "type": "address"
            },
            {
              "internalType": "address payable",
              "name": "seller",
              "type": "address"
            },
            {
              "internalType": "address payable",
              "name": "owner",
              "type": "address"
            },
            {
              "internalType": "address payable",
              "name": "admin",
              "type": "address"
            },
            {
              "internalType": "uint256",
              "name": "price",
              "type": "uint256"
            },
            {
              "internalType": "int32",
              "name": "royalty",
              "type": "int32"
            },
            {
              "internalType": "bool",
              "name": "sold",
              "type": "bool"
            },
            {
              "internalType": "address",
              "name": "oldOwner",
              "type": "address"
            },
            {
              "internalType": "address",
              "name": "oldSeller",
              "type": "address"
            },
            {
              "internalType": "uint256",
              "name": "oldPrice",
              "type": "uint256"
            },
            {
              "internalType": "bool",
              "name": "isResell",
              "type": "bool"
            }
          ],
          "internalType": "struct NFTMarketPlace.NftMarketItem",
          "name": "",
          "type": "tuple"
        }
      ],
      "stateMutability": "view",
      "type": "function",
      "constant": true
    },
    {
      "inputs": [],
      "name": "getMyItemCreated",
      "outputs": [
        {
          "components": [
            {
              "internalType": "address",
              "name": "nftContract",
              "type": "address"
            },
            {
              "internalType": "uint256",
              "name": "id",
              "type": "uint256"
            },
            {
              "internalType": "uint256",
              "name": "tokenId",
              "type": "uint256"
            },
            {
              "internalType": "address payable",
              "name": "creator",
              "type": "address"
            },
            {
              "internalType": "address payable",
              "name": "seller",
              "type": "address"
            },
            {
              "internalType": "address payable",
              "name": "owner",
              "type": "address"
            },
            {
              "internalType": "address payable",
              "name": "admin",
              "type": "address"
            },
            {
              "internalType": "uint256",
              "name": "price",
              "type": "uint256"
            },
            {
              "internalType": "int32",
              "name": "royalty",
              "type": "int32"
            },
            {
              "internalType": "bool",
              "name": "sold",
              "type": "bool"
            },
            {
              "internalType": "address",
              "name": "oldOwner",
              "type": "address"
            },
            {
              "internalType": "address",
              "name": "oldSeller",
              "type": "address"
            },
            {
              "internalType": "uint256",
              "name": "oldPrice",
              "type": "uint256"
            },
            {
              "internalType": "bool",
              "name": "isResell",
              "type": "bool"
            }
          ],
          "internalType": "struct NFTMarketPlace.NftMarketItem[]",
          "name": "",
          "type": "tuple[]"
        }
      ],
      "stateMutability": "view",
      "type": "function",
      "constant": true
    },
    {
      "inputs": [],
      "name": "getMyItemsolod",
      "outputs": [
        {
          "components": [
            {
              "internalType": "address",
              "name": "nftContract",
              "type": "address"
            },
            {
              "internalType": "uint256",
              "name": "id",
              "type": "uint256"
            },
            {
              "internalType": "uint256",
              "name": "tokenId",
              "type": "uint256"
            },
            {
              "internalType": "address payable",
              "name": "creator",
              "type": "address"
            },
            {
              "internalType": "address payable",
              "name": "seller",
              "type": "address"
            },
            {
              "internalType": "address payable",
              "name": "owner",
              "type": "address"
            },
            {
              "internalType": "address payable",
              "name": "admin",
              "type": "address"
            },
            {
              "internalType": "uint256",
              "name": "price",
              "type": "uint256"
            },
            {
              "internalType": "int32",
              "name": "royalty",
              "type": "int32"
            },
            {
              "internalType": "bool",
              "name": "sold",
              "type": "bool"
            },
            {
              "internalType": "address",
              "name": "oldOwner",
              "type": "address"
            },
            {
              "internalType": "address",
              "name": "oldSeller",
              "type": "address"
            },
            {
              "internalType": "uint256",
              "name": "oldPrice",
              "type": "uint256"
            },
            {
              "internalType": "bool",
              "name": "isResell",
              "type": "bool"
            }
          ],
          "internalType": "struct NFTMarketPlace.NftMarketItem[]",
          "name": "",
          "type": "tuple[]"
        }
      ],
      "stateMutability": "view",
      "type": "function",
      "constant": true
    },
    {
      "inputs": [],
      "name": "getMyNFTPurchased",
      "outputs": [
        {
          "components": [
            {
              "internalType": "address",
              "name": "nftContract",
              "type": "address"
            },
            {
              "internalType": "uint256",
              "name": "id",
              "type": "uint256"
            },
            {
              "internalType": "uint256",
              "name": "tokenId",
              "type": "uint256"
            },
            {
              "internalType": "address payable",
              "name": "creator",
              "type": "address"
            },
            {
              "internalType": "address payable",
              "name": "seller",
              "type": "address"
            },
            {
              "internalType": "address payable",
              "name": "owner",
              "type": "address"
            },
            {
              "internalType": "address payable",
              "name": "admin",
              "type": "address"
            },
            {
              "internalType": "uint256",
              "name": "price",
              "type": "uint256"
            },
            {
              "internalType": "int32",
              "name": "royalty",
              "type": "int32"
            },
            {
              "internalType": "bool",
              "name": "sold",
              "type": "bool"
            },
            {
              "internalType": "address",
              "name": "oldOwner",
              "type": "address"
            },
            {
              "internalType": "address",
              "name": "oldSeller",
              "type": "address"
            },
            {
              "internalType": "uint256",
              "name": "oldPrice",
              "type": "uint256"
            },
            {
              "internalType": "bool",
              "name": "isResell",
              "type": "bool"
            }
          ],
          "internalType": "struct NFTMarketPlace.NftMarketItem[]",
          "name": "",
          "type": "tuple[]"
        }
      ],
      "stateMutability": "view",
      "type": "function",
      "constant": true
    },
    {
      "inputs": [],
      "name": "getAllUnsoldItems",
      "outputs": [
        {
          "components": [
            {
              "internalType": "address",
              "name": "nftContract",
              "type": "address"
            },
            {
              "internalType": "uint256",
              "name": "id",
              "type": "uint256"
            },
            {
              "internalType": "uint256",
              "name": "tokenId",
              "type": "uint256"
            },
            {
              "internalType": "address payable",
              "name": "creator",
              "type": "address"
            },
            {
              "internalType": "address payable",
              "name": "seller",
              "type": "address"
            },
            {
              "internalType": "address payable",
              "name": "owner",
              "type": "address"
            },
            {
              "internalType": "address payable",
              "name": "admin",
              "type": "address"
            },
            {
              "internalType": "uint256",
              "name": "price",
              "type": "uint256"
            },
            {
              "internalType": "int32",
              "name": "royalty",
              "type": "int32"
            },
            {
              "internalType": "bool",
              "name": "sold",
              "type": "bool"
            },
            {
              "internalType": "address",
              "name": "oldOwner",
              "type": "address"
            },
            {
              "internalType": "address",
              "name": "oldSeller",
              "type": "address"
            },
            {
              "internalType": "uint256",
              "name": "oldPrice",
              "type": "uint256"
            },
            {
              "internalType": "bool",
              "name": "isResell",
              "type": "bool"
            }
          ],
          "internalType": "struct NFTMarketPlace.NftMarketItem[]",
          "name": "",
          "type": "tuple[]"
        }
      ],
      "stateMutability": "view",
      "type": "function",
      "constant": true
    },
    {
      "inputs": [],
      "name": "getMyResellItems",
      "outputs": [
        {
          "components": [
            {
              "internalType": "address",
              "name": "nftContract",
              "type": "address"
            },
            {
              "internalType": "uint256",
              "name": "id",
              "type": "uint256"
            },
            {
              "internalType": "uint256",
              "name": "tokenId",
              "type": "uint256"
            },
            {
              "internalType": "address payable",
              "name": "creator",
              "type": "address"
            },
            {
              "internalType": "address payable",
              "name": "seller",
              "type": "address"
            },
            {
              "internalType": "address payable",
              "name": "owner",
              "type": "address"
            },
            {
              "internalType": "address payable",
              "name": "admin",
              "type": "address"
            },
            {
              "internalType": "uint256",
              "name": "price",
              "type": "uint256"
            },
            {
              "internalType": "int32",
              "name": "royalty",
              "type": "int32"
            },
            {
              "internalType": "bool",
              "name": "sold",
              "type": "bool"
            },
            {
              "internalType": "address",
              "name": "oldOwner",
              "type": "address"
            },
            {
              "internalType": "address",
              "name": "oldSeller",
              "type": "address"
            },
            {
              "internalType": "uint256",
              "name": "oldPrice",
              "type": "uint256"
            },
            {
              "internalType": "bool",
              "name": "isResell",
              "type": "bool"
            }
          ],
          "internalType": "struct NFTMarketPlace.NftMarketItem[]",
          "name": "",
          "type": "tuple[]"
        }
      ],
      "stateMutability": "view",
      "type": "function",
      "constant": true
    }
  ],
  "bytecode": "0x608060405267016345785d8a000060025534801561001c57600080fd5b50600160008190555033600160006101000a81548173ffffffffffffffffffffffffffffffffffffffff021916908373ffffffffffffffffffffffffffffffffffffffff1602179055506142e3806100756000396000f3fe6080604052600436106100c4576000357c0100000000000000000000000000000000000000000000000000000000900480639e31e655116100815780639e31e6551461019e578063a2bf932a146101c9578063a3c3204414610206578063a3cf6c5814610231578063a8176e581461024d578063bca5244214610269576100c4565b806325135cbf146100c9578063394f9a8f146100f4578063446269e61461011f57806357e9b6cc1461014a57806358271fff14610166578063858c295314610182575b600080fd5b3480156100d557600080fd5b506100de610294565b6040516100eb9190613780565b60405180910390f35b34801561010057600080fd5b506101096106f8565b6040516101169190613780565b60405180910390f35b34801561012b57600080fd5b50610134610bdf565b6040516101419190613780565b60405180910390f35b610164600480360381019061015f91906137ff565b6110c6565b005b610180600480360381019061017b919061383f565b6113ea565b005b61019c600480360381019061019791906137ff565b61185f565b005b3480156101aa57600080fd5b506101b3611c16565b6040516101c09190613780565b60405180910390f35b3480156101d557600080fd5b506101f060048036038101906101eb9190613892565b6120fd565b6040516101fd91906139df565b60405180910390f35b34801561021257600080fd5b5061021b612400565b6040516102289190613780565b60405180910390f35b61024b6004803603810190610246919061383f565b612967565b005b61026760048036038101906102629190613a27565b612c71565b005b34801561027557600080fd5b5061027e613364565b60405161028b9190613a9d565b60405180910390f35b606060006102a2600361336e565b905060006102b0600461336e565b6102ba600361336e565b6102c49190613ae7565b90506000808267ffffffffffffffff8111156102e3576102e2613b1b565b5b60405190808252806020026020018201604052801561031c57816020015b6103096133ee565b8152602001906001900390816103015790505b50905060005b848110156106ed57600073ffffffffffffffffffffffffffffffffffffffff16600660006001846103539190613b4a565b815260200190815260200160002060050160009054906101000a900473ffffffffffffffffffffffffffffffffffffffff1673ffffffffffffffffffffffffffffffffffffffff16036106da5760006001826103af9190613b4a565b9050600060066000838152602001908152602001600020905080604051806101c00160405290816000820160009054906101000a900473ffffffffffffffffffffffffffffffffffffffff1673ffffffffffffffffffffffffffffffffffffffff1673ffffffffffffffffffffffffffffffffffffffff16815260200160018201548152602001600282015481526020016003820160009054906101000a900473ffffffffffffffffffffffffffffffffffffffff1673ffffffffffffffffffffffffffffffffffffffff1673ffffffffffffffffffffffffffffffffffffffff1681526020016004820160009054906101000a900473ffffffffffffffffffffffffffffffffffffffff1673ffffffffffffffffffffffffffffffffffffffff1673ffffffffffffffffffffffffffffffffffffffff1681526020016005820160009054906101000a900473ffffffffffffffffffffffffffffffffffffffff1673ffffffffffffffffffffffffffffffffffffffff1673ffffffffffffffffffffffffffffffffffffffff1681526020016006820160009054906101000a900473ffffffffffffffffffffffffffffffffffffffff1673ffffffffffffffffffffffffffffffffffffffff1673ffffffffffffffffffffffffffffffffffffffff168152602001600782015481526020016008820160009054906101000a900460030b60030b60030b81526020016008820160049054906101000a900460ff161515151581526020016008820160059054906101000a900473ffffffffffffffffffffffffffffffffffffffff1673ffffffffffffffffffffffffffffffffffffffff1673ffffffffffffffffffffffffffffffffffffffff1681526020016009820160009054906101000a900473ffffffffffffffffffffffffffffffffffffffff1673ffffffffffffffffffffffffffffffffffffffff1673ffffffffffffffffffffffffffffffffffffffff168152602001600a8201548152602001600b820160009054906101000a900460ff1615151515815250508486815181106106bd576106bc613ba0565b5b60200260200101819052506001856106d59190613b4a565b945050505b80806106e590613bcf565b915050610322565b508094505050505090565b60606000610706600361336e565b905060008060005b838110156107ae573373ffffffffffffffffffffffffffffffffffffffff166006600060018461073e9190613b4a565b815260200190815260200160002060040160009054906101000a900473ffffffffffffffffffffffffffffffffffffffff1673ffffffffffffffffffffffffffffffffffffffff160361079b576001836107989190613b4a565b92505b80806107a690613bcf565b91505061070e565b5060008267ffffffffffffffff8111156107cb576107ca613b1b565b5b60405190808252806020026020018201604052801561080457816020015b6107f16133ee565b8152602001906001900390816107e95790505b50905060005b84811015610bd4573373ffffffffffffffffffffffffffffffffffffffff166006600060018461083a9190613b4a565b815260200190815260200160002060040160009054906101000a900473ffffffffffffffffffffffffffffffffffffffff1673ffffffffffffffffffffffffffffffffffffffff1603610bc15760006001826108969190613b4a565b9050600060066000838152602001908152602001600020905080604051806101c00160405290816000820160009054906101000a900473ffffffffffffffffffffffffffffffffffffffff1673ffffffffffffffffffffffffffffffffffffffff1673ffffffffffffffffffffffffffffffffffffffff16815260200160018201548152602001600282015481526020016003820160009054906101000a900473ffffffffffffffffffffffffffffffffffffffff1673ffffffffffffffffffffffffffffffffffffffff1673ffffffffffffffffffffffffffffffffffffffff1681526020016004820160009054906101000a900473ffffffffffffffffffffffffffffffffffffffff1673ffffffffffffffffffffffffffffffffffffffff1673ffffffffffffffffffffffffffffffffffffffff1681526020016005820160009054906101000a900473ffffffffffffffffffffffffffffffffffffffff1673ffffffffffffffffffffffffffffffffffffffff1673ffffffffffffffffffffffffffffffffffffffff1681526020016006820160009054906101000a900473ffffffffffffffffffffffffffffffffffffffff1673ffffffffffffffffffffffffffffffffffffffff1673ffffffffffffffffffffffffffffffffffffffff168152602001600782015481526020016008820160009054906101000a900460030b60030b60030b81526020016008820160049054906101000a900460ff161515151581526020016008820160059054906101000a900473ffffffffffffffffffffffffffffffffffffffff1673ffffffffffffffffffffffffffffffffffffffff1673ffffffffffffffffffffffffffffffffffffffff1681526020016009820160009054906101000a900473ffffffffffffffffffffffffffffffffffffffff1673ffffffffffffffffffffffffffffffffffffffff1673ffffffffffffffffffffffffffffffffffffffff168152602001600a8201548152602001600b820160009054906101000a900460ff161515151581525050848681518110610ba457610ba3613ba0565b5b6020026020010181905250600185610bbc9190613b4a565b945050505b8080610bcc90613bcf565b91505061080a565b508094505050505090565b60606000610bed600361336e565b905060008060005b83811015610c95573373ffffffffffffffffffffffffffffffffffffffff1660066000600184610c259190613b4a565b815260200190815260200160002060050160009054906101000a900473ffffffffffffffffffffffffffffffffffffffff1673ffffffffffffffffffffffffffffffffffffffff1603610c8257600183610c7f9190613b4a565b92505b8080610c8d90613bcf565b915050610bf5565b5060008267ffffffffffffffff811115610cb257610cb1613b1b565b5b604051908082528060200260200182016040528015610ceb57816020015b610cd86133ee565b815260200190600190039081610cd05790505b50905060005b848110156110bb573373ffffffffffffffffffffffffffffffffffffffff1660066000600184610d219190613b4a565b815260200190815260200160002060050160009054906101000a900473ffffffffffffffffffffffffffffffffffffffff1673ffffffffffffffffffffffffffffffffffffffff16036110a8576000600182610d7d9190613b4a565b9050600060066000838152602001908152602001600020905080604051806101c00160405290816000820160009054906101000a900473ffffffffffffffffffffffffffffffffffffffff1673ffffffffffffffffffffffffffffffffffffffff1673ffffffffffffffffffffffffffffffffffffffff16815260200160018201548152602001600282015481526020016003820160009054906101000a900473ffffffffffffffffffffffffffffffffffffffff1673ffffffffffffffffffffffffffffffffffffffff1673ffffffffffffffffffffffffffffffffffffffff1681526020016004820160009054906101000a900473ffffffffffffffffffffffffffffffffffffffff1673ffffffffffffffffffffffffffffffffffffffff1673ffffffffffffffffffffffffffffffffffffffff1681526020016005820160009054906101000a900473ffffffffffffffffffffffffffffffffffffffff1673ffffffffffffffffffffffffffffffffffffffff1673ffffffffffffffffffffffffffffffffffffffff1681526020016006820160009054906101000a900473ffffffffffffffffffffffffffffffffffffffff1673ffffffffffffffffffffffffffffffffffffffff1673ffffffffffffffffffffffffffffffffffffffff168152602001600782015481526020016008820160009054906101000a900460030b60030b60030b81526020016008820160049054906101000a900460ff161515151581526020016008820160059054906101000a900473ffffffffffffffffffffffffffffffffffffffff1673ffffffffffffffffffffffffffffffffffffffff1673ffffffffffffffffffffffffffffffffffffffff1681526020016009820160009054906101000a900473ffffffffffffffffffffffffffffffffffffffff1673ffffffffffffffffffffffffffffffffffffffff1673ffffffffffffffffffffffffffffffffffffffff168152602001600a8201548152602001600b820160009054906101000a900460ff16151515158152505084868151811061108b5761108a613ba0565b5b60200260200101819052506001856110a39190613b4a565b945050505b80806110b390613bcf565b915050610cf1565b508094505050505090565b60026000540361110b576040517f08c379a000000000000000000000000000000000000000000000000000000000815260040161110290613c74565b60405180910390fd5b60026000819055506000600660008381526020019081526020016000206002015490508273ffffffffffffffffffffffffffffffffffffffff166323b872dd3033846040518463ffffffff167c010000000000000000000000000000000000000000000000000000000002815260040161118793929190613ca3565b600060405180830381600087803b1580156111a157600080fd5b505af11580156111b5573d6000803e3d6000fd5b50505050336006600084815260200190815260200160002060050160006101000a81548173ffffffffffffffffffffffffffffffffffffffff021916908373ffffffffffffffffffffffffffffffffffffffff16021790555060016006600084815260200190815260200160002060080160046101000a81548160ff021916908315150217905550600160066000848152602001908152602001600020600b0160006101000a81548160ff021916908315150217905550611276600461337c565b60066000838152602001908152602001600020600201546006600084815260200190815260200160002060000160009054906101000a900473ffffffffffffffffffffffffffffffffffffffff1673ffffffffffffffffffffffffffffffffffffffff1660066000858152602001908152602001600020600101547fab47c87ce5bb9a766199be058dc64048cddc53e92f4bc46d413a1e9484e770cd6006600087815260200190815260200160002060030160009054906101000a900473ffffffffffffffffffffffffffffffffffffffff166006600088815260200190815260200160002060040160009054906101000a900473ffffffffffffffffffffffffffffffffffffffff1633600660008a8152602001908152602001600020600701546000806000600660008e8152602001908152602001600020600b0160009054906101000a900460ff166040516113d5989796959493929190613d83565b60405180910390a45060016000819055505050565b60026000540361142f576040517f08c379a000000000000000000000000000000000000000000000000000000000815260040161142690613c74565b60405180910390fd5b6002600081905550813373ffffffffffffffffffffffffffffffffffffffff166006600083815260200190815260200160002060050160009054906101000a900473ffffffffffffffffffffffffffffffffffffffff1673ffffffffffffffffffffffffffffffffffffffff16146114dc576040517f08c379a00000000000000000000000000000000000000000000000000000000081526004016114d390613e73565b60405180910390fd5b6000600660008581526020019081526020016000206002015490506000831161153a576040517f08c379a000000000000000000000000000000000000000000000000000000000815260040161153190613edf565b60405180910390fd5b60008590508073ffffffffffffffffffffffffffffffffffffffff1663f5537ede3330856040518463ffffffff167c010000000000000000000000000000000000000000000000000000000002815260040161159893929190613ca3565b600060405180830381600087803b1580156115b257600080fd5b505af11580156115c6573d6000803e3d6000fd5b5050505060006006600087815260200190815260200160002060050160009054906101000a900473ffffffffffffffffffffffffffffffffffffffff16905060006006600088815260200190815260200160002060040160009054906101000a900473ffffffffffffffffffffffffffffffffffffffff1690506000600660008981526020019081526020016000206007015490506000600660008a815260200190815260200160002060050160006101000a81548173ffffffffffffffffffffffffffffffffffffffff021916908373ffffffffffffffffffffffffffffffffffffffff16021790555082600660008a815260200190815260200160002060040160006101000a81548173ffffffffffffffffffffffffffffffffffffffff021916908373ffffffffffffffffffffffffffffffffffffffff16021790555086600660008a8152602001908152602001600020600701819055506000600660008a815260200190815260200160002060080160046101000a81548160ff02191690831515021790555082600660008a815260200190815260200160002060080160056101000a81548173ffffffffffffffffffffffffffffffffffffffff021916908373ffffffffffffffffffffffffffffffffffffffff16021790555081600660008a815260200190815260200160002060090160006101000a81548173ffffffffffffffffffffffffffffffffffffffff021916908373ffffffffffffffffffffffffffffffffffffffff16021790555080600660008a8152602001908152602001600020600a018190555061181f6004613392565b877f221866c21613d6f0d77d42f9309b122a25deed1bc186cff9c2f1ddafc52c34f660405160405180910390a25050505050506001600081905550505050565b6002600054036118a4576040517f08c379a000000000000000000000000000000000000000000000000000000000815260040161189b90613c74565b60405180910390fd5b6002600081905550600060066000838152602001908152602001600020600a015490506000600660008481526020019081526020016000206002015490508373ffffffffffffffffffffffffffffffffffffffff166323b872dd3033846040518463ffffffff167c010000000000000000000000000000000000000000000000000000000002815260040161193b93929190613ca3565b600060405180830381600087803b15801561195557600080fd5b505af1158015611969573d6000803e3d6000fd5b50505050336006600085815260200190815260200160002060050160006101000a81548173ffffffffffffffffffffffffffffffffffffffff021916908373ffffffffffffffffffffffffffffffffffffffff1602179055508160066000858152602001908152602001600020600701819055506006600084815260200190815260200160002060090160009054906101000a900473ffffffffffffffffffffffffffffffffffffffff166006600085815260200190815260200160002060040160006101000a81548173ffffffffffffffffffffffffffffffffffffffff021916908373ffffffffffffffffffffffffffffffffffffffff16021790555060016006600085815260200190815260200160002060080160046101000a81548160ff021916908315150217905550611aa1600461337c565b60066000848152602001908152602001600020600201546006600085815260200190815260200160002060000160009054906101000a900473ffffffffffffffffffffffffffffffffffffffff1673ffffffffffffffffffffffffffffffffffffffff1660066000868152602001908152602001600020600101547fab47c87ce5bb9a766199be058dc64048cddc53e92f4bc46d413a1e9484e770cd6006600088815260200190815260200160002060030160009054906101000a900473ffffffffffffffffffffffffffffffffffffffff166006600089815260200190815260200160002060040160009054906101000a900473ffffffffffffffffffffffffffffffffffffffff1633600660008b8152602001908152602001600020600701546000806000600660008f8152602001908152602001600020600b0160009054906101000a900460ff16604051611c00989796959493929190613d83565b60405180910390a4505060016000819055505050565b60606000611c24600361336e565b905060008060005b83811015611ccc573373ffffffffffffffffffffffffffffffffffffffff1660066000600184611c5c9190613b4a565b815260200190815260200160002060030160009054906101000a900473ffffffffffffffffffffffffffffffffffffffff1673ffffffffffffffffffffffffffffffffffffffff1603611cb957600183611cb69190613b4a565b92505b8080611cc490613bcf565b915050611c2c565b5060008267ffffffffffffffff811115611ce957611ce8613b1b565b5b604051908082528060200260200182016040528015611d2257816020015b611d0f6133ee565b815260200190600190039081611d075790505b50905060005b848110156120f2573373ffffffffffffffffffffffffffffffffffffffff1660066000600184611d589190613b4a565b815260200190815260200160002060030160009054906101000a900473ffffffffffffffffffffffffffffffffffffffff1673ffffffffffffffffffffffffffffffffffffffff16036120df576000600182611db49190613b4a565b9050600060066000838152602001908152602001600020905080604051806101c00160405290816000820160009054906101000a900473ffffffffffffffffffffffffffffffffffffffff1673ffffffffffffffffffffffffffffffffffffffff1673ffffffffffffffffffffffffffffffffffffffff16815260200160018201548152602001600282015481526020016003820160009054906101000a900473ffffffffffffffffffffffffffffffffffffffff1673ffffffffffffffffffffffffffffffffffffffff1673ffffffffffffffffffffffffffffffffffffffff1681526020016004820160009054906101000a900473ffffffffffffffffffffffffffffffffffffffff1673ffffffffffffffffffffffffffffffffffffffff1673ffffffffffffffffffffffffffffffffffffffff1681526020016005820160009054906101000a900473ffffffffffffffffffffffffffffffffffffffff1673ffffffffffffffffffffffffffffffffffffffff1673ffffffffffffffffffffffffffffffffffffffff1681526020016006820160009054906101000a900473ffffffffffffffffffffffffffffffffffffffff1673ffffffffffffffffffffffffffffffffffffffff1673ffffffffffffffffffffffffffffffffffffffff168152602001600782015481526020016008820160009054906101000a900460030b60030b60030b81526020016008820160049054906101000a900460ff161515151581526020016008820160059054906101000a900473ffffffffffffffffffffffffffffffffffffffff1673ffffffffffffffffffffffffffffffffffffffff1673ffffffffffffffffffffffffffffffffffffffff1681526020016009820160009054906101000a900473ffffffffffffffffffffffffffffffffffffffff1673ffffffffffffffffffffffffffffffffffffffff1673ffffffffffffffffffffffffffffffffffffffff168152602001600a8201548152602001600b820160009054906101000a900460ff1615151515815250508486815181106120c2576120c1613ba0565b5b60200260200101819052506001856120da9190613b4a565b945050505b80806120ea90613bcf565b915050611d28565b508094505050505090565b6121056133ee565b60066000838152602001908152602001600020604051806101c00160405290816000820160009054906101000a900473ffffffffffffffffffffffffffffffffffffffff1673ffffffffffffffffffffffffffffffffffffffff1673ffffffffffffffffffffffffffffffffffffffff16815260200160018201548152602001600282015481526020016003820160009054906101000a900473ffffffffffffffffffffffffffffffffffffffff1673ffffffffffffffffffffffffffffffffffffffff1673ffffffffffffffffffffffffffffffffffffffff1681526020016004820160009054906101000a900473ffffffffffffffffffffffffffffffffffffffff1673ffffffffffffffffffffffffffffffffffffffff1673ffffffffffffffffffffffffffffffffffffffff1681526020016005820160009054906101000a900473ffffffffffffffffffffffffffffffffffffffff1673ffffffffffffffffffffffffffffffffffffffff1673ffffffffffffffffffffffffffffffffffffffff1681526020016006820160009054906101000a900473ffffffffffffffffffffffffffffffffffffffff1673ffffffffffffffffffffffffffffffffffffffff1673ffffffffffffffffffffffffffffffffffffffff168152602001600782015481526020016008820160009054906101000a900460030b60030b60030b81526020016008820160049054906101000a900460ff161515151581526020016008820160059054906101000a900473ffffffffffffffffffffffffffffffffffffffff1673ffffffffffffffffffffffffffffffffffffffff1673ffffffffffffffffffffffffffffffffffffffff1681526020016009820160009054906101000a900473ffffffffffffffffffffffffffffffffffffffff1673ffffffffffffffffffffffffffffffffffffffff1673ffffffffffffffffffffffffffffffffffffffff168152602001600a8201548152602001600b820160009054906101000a900460ff1615151515815250509050919050565b6060600061240e600361336e565b905060008060005b838110156124f6573373ffffffffffffffffffffffffffffffffffffffff16600660006001846124469190613b4a565b815260200190815260200160002060040160009054906101000a900473ffffffffffffffffffffffffffffffffffffffff1673ffffffffffffffffffffffffffffffffffffffff161480156124ce575060001515600660006001846124ab9190613b4a565b815260200190815260200160002060080160049054906101000a900460ff161515145b156124e3576001836124e09190613b4a565b92505b80806124ee90613bcf565b915050612416565b5060008267ffffffffffffffff81111561251357612512613b1b565b5b60405190808252806020026020018201604052801561254c57816020015b6125396133ee565b8152602001906001900390816125315790505b50905060005b8481101561295c573373ffffffffffffffffffffffffffffffffffffffff16600660006001846125829190613b4a565b815260200190815260200160002060040160009054906101000a900473ffffffffffffffffffffffffffffffffffffffff1673ffffffffffffffffffffffffffffffffffffffff1614801561260a575060001515600660006001846125e79190613b4a565b815260200190815260200160002060080160049054906101000a900460ff161515145b1561294957600060018261261e9190613b4a565b9050600060066000838152602001908152602001600020905080604051806101c00160405290816000820160009054906101000a900473ffffffffffffffffffffffffffffffffffffffff1673ffffffffffffffffffffffffffffffffffffffff1673ffffffffffffffffffffffffffffffffffffffff16815260200160018201548152602001600282015481526020016003820160009054906101000a900473ffffffffffffffffffffffffffffffffffffffff1673ffffffffffffffffffffffffffffffffffffffff1673ffffffffffffffffffffffffffffffffffffffff1681526020016004820160009054906101000a900473ffffffffffffffffffffffffffffffffffffffff1673ffffffffffffffffffffffffffffffffffffffff1673ffffffffffffffffffffffffffffffffffffffff1681526020016005820160009054906101000a900473ffffffffffffffffffffffffffffffffffffffff1673ffffffffffffffffffffffffffffffffffffffff1673ffffffffffffffffffffffffffffffffffffffff1681526020016006820160009054906101000a900473ffffffffffffffffffffffffffffffffffffffff1673ffffffffffffffffffffffffffffffffffffffff1673ffffffffffffffffffffffffffffffffffffffff168152602001600782015481526020016008820160009054906101000a900460030b60030b60030b81526020016008820160049054906101000a900460ff161515151581526020016008820160059054906101000a900473ffffffffffffffffffffffffffffffffffffffff1673ffffffffffffffffffffffffffffffffffffffff1673ffffffffffffffffffffffffffffffffffffffff1681526020016009820160009054906101000a900473ffffffffffffffffffffffffffffffffffffffff1673ffffffffffffffffffffffffffffffffffffffff1673ffffffffffffffffffffffffffffffffffffffff168152602001600a8201548152602001600b820160009054906101000a900460ff16151515158152505084868151811061292c5761292b613ba0565b5b60200260200101819052506001856129449190613b4a565b945050505b808061295490613bcf565b915050612552565b508094505050505090565b81600073ffffffffffffffffffffffffffffffffffffffff166006600083815260200190815260200160002060050160009054906101000a900473ffffffffffffffffffffffffffffffffffffffff1673ffffffffffffffffffffffffffffffffffffffff16148015612a3b57503373ffffffffffffffffffffffffffffffffffffffff166006600083815260200190815260200160002060040160009054906101000a900473ffffffffffffffffffffffffffffffffffffffff1673ffffffffffffffffffffffffffffffffffffffff16145b612a7a576040517f08c379a0000000000000000000000000000000000000000000000000000000008152600401612a7190613f71565b60405180910390fd5b6000600660008581526020019081526020016000209050600081600a0154905080826007018190555060008260080160046101000a81548160ff02191690831515021790555060008260080160059054906101000a900473ffffffffffffffffffffffffffffffffffffffff169050808360050160006101000a81548173ffffffffffffffffffffffffffffffffffffffff021916908373ffffffffffffffffffffffffffffffffffffffff16021790555060008360090160009054906101000a900473ffffffffffffffffffffffffffffffffffffffff169050808460040160006101000a81548173ffffffffffffffffffffffffffffffffffffffff021916908373ffffffffffffffffffffffffffffffffffffffff16021790555060008890508073ffffffffffffffffffffffffffffffffffffffff1663f5537ede33308a6040518463ffffffff167c0100000000000000000000000000000000000000000000000000000000028152600401612bf693929190613ca3565b600060405180830381600087803b158015612c1057600080fd5b505af1158015612c24573d6000803e3d6000fd5b5050505083887f0cda8f7bfedf96da039369f3a99bc7c6fe0187618743d6a93bceb682d3026a2060008686604051612c5e93929190613f91565b60405180910390a3505050505050505050565b600260005403612cb6576040517f08c379a0000000000000000000000000000000000000000000000000000000008152600401612cad90613c74565b60405180910390fd5b600260008190555060008211612d01576040517f08c379a0000000000000000000000000000000000000000000000000000000008152600401612cf890614014565b60405180910390fd5b60008311612d44576040517f08c379a0000000000000000000000000000000000000000000000000000000008152600401612d3b90614080565b60405180910390fd5b6002543414612d88576040517f08c379a0000000000000000000000000000000000000000000000000000000008152600401612d7f906140ec565b60405180910390fd5b600073ffffffffffffffffffffffffffffffffffffffff168473ffffffffffffffffffffffffffffffffffffffff1603612df7576040517f08c379a0000000000000000000000000000000000000000000000000000000008152600401612dee90614158565b60405180910390fd5b612e01600361337c565b600160009054906101000a900473ffffffffffffffffffffffffffffffffffffffff1673ffffffffffffffffffffffffffffffffffffffff166108fc6002549081150290604051600060405180830381858888f19350505050158015612e6b573d6000803e3d6000fd5b506000612e78600361336e565b9050604051806101c001604052808673ffffffffffffffffffffffffffffffffffffffff1681526020018281526020018581526020013373ffffffffffffffffffffffffffffffffffffffff1681526020013373ffffffffffffffffffffffffffffffffffffffff168152602001600073ffffffffffffffffffffffffffffffffffffffff168152602001600160009054906101000a900473ffffffffffffffffffffffffffffffffffffffff1673ffffffffffffffffffffffffffffffffffffffff1681526020018481526020018360030b8152602001600015158152602001600073ffffffffffffffffffffffffffffffffffffffff168152602001600073ffffffffffffffffffffffffffffffffffffffff168152602001848152602001600015158152506006600083815260200190815260200160002060008201518160000160006101000a81548173ffffffffffffffffffffffffffffffffffffffff021916908373ffffffffffffffffffffffffffffffffffffffff160217905550602082015181600101556040820151816002015560608201518160030160006101000a81548173ffffffffffffffffffffffffffffffffffffffff021916908373ffffffffffffffffffffffffffffffffffffffff16021790555060808201518160040160006101000a81548173ffffffffffffffffffffffffffffffffffffffff021916908373ffffffffffffffffffffffffffffffffffffffff16021790555060a08201518160050160006101000a81548173ffffffffffffffffffffffffffffffffffffffff021916908373ffffffffffffffffffffffffffffffffffffffff16021790555060c08201518160060160006101000a81548173ffffffffffffffffffffffffffffffffffffffff021916908373ffffffffffffffffffffffffffffffffffffffff16021790555060e082015181600701556101008201518160080160006101000a81548163ffffffff021916908360030b63ffffffff1602179055506101208201518160080160046101000a81548160ff0219169083151502179055506101408201518160080160056101000a81548173ffffffffffffffffffffffffffffffffffffffff021916908373ffffffffffffffffffffffffffffffffffffffff1602179055506101608201518160090160006101000a81548173ffffffffffffffffffffffffffffffffffffffff021916908373ffffffffffffffffffffffffffffffffffffffff16021790555061018082015181600a01556101a082015181600b0160006101000a81548160ff0219169083151502179055509050508473ffffffffffffffffffffffffffffffffffffffff166323b872dd3330876040518463ffffffff167c010000000000000000000000000000000000000000000000000000000002815260040161329893929190613ca3565b600060405180830381600087803b1580156132b257600080fd5b505af11580156132c6573d6000803e3d6000fd5b50505050808573ffffffffffffffffffffffffffffffffffffffff167f6bced06b00824cc4714170d0e718d18546c05d3dd40d765a4a7bc9e82872dac08633336000600160009054906101000a900473ffffffffffffffffffffffffffffffffffffffff168a8a60008060008f600060405161334d9c9b9a99989796959493929190614187565b60405180910390a350600160008190555050505050565b6000600254905090565b600081600001549050919050565b6001816000016000828254019250508190555050565b600081600001549050600081116133de576040517f08c379a00000000000000000000000000000000000000000000000000000000081526004016133d59061428d565b60405180910390fd5b6001810382600001819055505050565b604051806101c00160405280600073ffffffffffffffffffffffffffffffffffffffff1681526020016000815260200160008152602001600073ffffffffffffffffffffffffffffffffffffffff168152602001600073ffffffffffffffffffffffffffffffffffffffff168152602001600073ffffffffffffffffffffffffffffffffffffffff168152602001600073ffffffffffffffffffffffffffffffffffffffff16815260200160008152602001600060030b8152602001600015158152602001600073ffffffffffffffffffffffffffffffffffffffff168152602001600073ffffffffffffffffffffffffffffffffffffffff168152602001600081526020016000151581525090565b600081519050919050565b600082825260208201905092915050565b6000819050602082019050919050565b600073ffffffffffffffffffffffffffffffffffffffff82169050919050565b60006135558261352a565b9050919050565b6135658161354a565b82525050565b6000819050919050565b61357e8161356b565b82525050565b600061358f8261352a565b9050919050565b61359f81613584565b82525050565b60008160030b9050919050565b6135bb816135a5565b82525050565b60008115159050919050565b6135d6816135c1565b82525050565b6101c0820160008201516135f3600085018261355c565b5060208201516136066020850182613575565b5060408201516136196040850182613575565b50606082015161362c6060850182613596565b50608082015161363f6080850182613596565b5060a082015161365260a0850182613596565b5060c082015161366560c0850182613596565b5060e082015161367860e0850182613575565b5061010082015161368d6101008501826135b2565b506101208201516136a26101208501826135cd565b506101408201516136b761014085018261355c565b506101608201516136cc61016085018261355c565b506101808201516136e1610180850182613575565b506101a08201516136f66101a08501826135cd565b50505050565b600061370883836135dc565b6101c08301905092915050565b6000602082019050919050565b600061372d826134fe565b6137378185613509565b93506137428361351a565b8060005b8381101561377357815161375a88826136fc565b975061376583613715565b925050600181019050613746565b5085935050505092915050565b6000602082019050818103600083015261379a8184613722565b905092915050565b600080fd5b6137b08161354a565b81146137bb57600080fd5b50565b6000813590506137cd816137a7565b92915050565b6137dc8161356b565b81146137e757600080fd5b50565b6000813590506137f9816137d3565b92915050565b60008060408385031215613816576138156137a2565b5b6000613824858286016137be565b9250506020613835858286016137ea565b9150509250929050565b600080600060608486031215613858576138576137a2565b5b6000613866868287016137be565b9350506020613877868287016137ea565b9250506040613888868287016137ea565b9150509250925092565b6000602082840312156138a8576138a76137a2565b5b60006138b6848285016137ea565b91505092915050565b6101c0820160008201516138d6600085018261355c565b5060208201516138e96020850182613575565b5060408201516138fc6040850182613575565b50606082015161390f6060850182613596565b5060808201516139226080850182613596565b5060a082015161393560a0850182613596565b5060c082015161394860c0850182613596565b5060e082015161395b60e0850182613575565b506101008201516139706101008501826135b2565b506101208201516139856101208501826135cd565b5061014082015161399a61014085018261355c565b506101608201516139af61016085018261355c565b506101808201516139c4610180850182613575565b506101a08201516139d96101a08501826135cd565b50505050565b60006101c0820190506139f560008301846138bf565b92915050565b613a04816135a5565b8114613a0f57600080fd5b50565b600081359050613a21816139fb565b92915050565b60008060008060808587031215613a4157613a406137a2565b5b6000613a4f878288016137be565b9450506020613a60878288016137ea565b9350506040613a71878288016137ea565b9250506060613a8287828801613a12565b91505092959194509250565b613a978161356b565b82525050565b6000602082019050613ab26000830184613a8e565b92915050565b7f4e487b7100000000000000000000000000000000000000000000000000000000600052601160045260246000fd5b6000613af28261356b565b9150613afd8361356b565b925082821015613b1057613b0f613ab8565b5b828203905092915050565b7f4e487b7100000000000000000000000000000000000000000000000000000000600052604160045260246000fd5b6000613b558261356b565b9150613b608361356b565b9250827fffffffffffffffffffffffffffffffffffffffffffffffffffffffffffffffff03821115613b9557613b94613ab8565b5b828201905092915050565b7f4e487b7100000000000000000000000000000000000000000000000000000000600052603260045260246000fd5b6000613bda8261356b565b91507fffffffffffffffffffffffffffffffffffffffffffffffffffffffffffffffff8203613c0c57613c0b613ab8565b5b600182019050919050565b600082825260208201905092915050565b7f5265656e7472616e637947756172643a207265656e7472616e742063616c6c00600082015250565b6000613c5e601f83613c17565b9150613c6982613c28565b602082019050919050565b60006020820190508181036000830152613c8d81613c51565b9050919050565b613c9d8161354a565b82525050565b6000606082019050613cb86000830186613c94565b613cc56020830185613c94565b613cd26040830184613a8e565b949350505050565b6000819050919050565b6000613cff613cfa613cf58461352a565b613cda565b61352a565b9050919050565b6000613d1182613ce4565b9050919050565b6000613d2382613d06565b9050919050565b613d3381613d18565b82525050565b6000819050919050565b6000613d5e613d59613d5484613d39565b613cda565b61356b565b9050919050565b613d6e81613d43565b82525050565b613d7d816135c1565b82525050565b600061010082019050613d99600083018b613d2a565b613da6602083018a613d2a565b613db36040830189613d2a565b613dc06060830188613a8e565b613dcd6080830187613c94565b613dda60a0830186613c94565b613de760c0830185613d65565b613df460e0830184613d74565b9998505050505050505050565b7f4f6e6c792070726f64756374206f776e65722063616e20646f2074686973206f60008201527f7065726174696f6e000000000000000000000000000000000000000000000000602082015250565b6000613e5d602883613c17565b9150613e6882613e01565b604082019050919050565b60006020820190508181036000830152613e8c81613e50565b9050919050565b7f5072696365206d757374206265206174206c6561737420312077656900000000600082015250565b6000613ec9601c83613c17565b9150613ed482613e93565b602082019050919050565b60006020820190508181036000830152613ef881613ebc565b9050919050565b7f4f6e6c79207468652070726f647563742063616e20646f2074686973206f706560008201527f726174696f6e0000000000000000000000000000000000000000000000000000602082015250565b6000613f5b602683613c17565b9150613f6682613eff565b604082019050919050565b60006020820190508181036000830152613f8a81613f4e565b9050919050565b6000606082019050613fa66000830186613d74565b613fb36020830185613c94565b613fc06040830184613c94565b949350505050565b7f50726963652073686f756c64206265206d6f72655468616e2031000000000000600082015250565b6000613ffe601a83613c17565b915061400982613fc8565b602082019050919050565b6000602082019050818103600083015261402d81613ff1565b9050919050565b7f746f6b656e2049642073686f756c64206265206d6f72655468616e2031000000600082015250565b600061406a601d83613c17565b915061407582614034565b602082019050919050565b600060208201905081810360008301526140998161405d565b9050919050565b7f546865204d61726b6574204665657320697320302e3130204574686572000000600082015250565b60006140d6601d83613c17565b91506140e1826140a0565b602082019050919050565b60006020820190508181036000830152614105816140c9565b9050919050565b7f616464726573732073686f756c64206e6f7420626520657175616c2030783000600082015250565b6000614142601f83613c17565b915061414d8261410c565b602082019050919050565b6000602082019050818103600083015261417181614135565b9050919050565b614181816135a5565b82525050565b60006101808201905061419d600083018f613a8e565b6141aa602083018e613c94565b6141b7604083018d613c94565b6141c4606083018c613c94565b6141d1608083018b613d2a565b6141de60a083018a613a8e565b6141eb60c0830189614178565b6141f860e0830188613d74565b614206610100830187613c94565b614214610120830186613c94565b614222610140830185613a8e565b614230610160830184613d74565b9d9c50505050505050505050505050565b7f436f756e7465723a2064656372656d656e74206f766572666c6f770000000000600082015250565b6000614277601b83613c17565b915061428282614241565b602082019050919050565b600060208201905081810360008301526142a68161426a565b905091905056fea264697066735822122065620ba03ff2ce8518611b7977755aea8cb9b4685d66b28cc8db464583d0025b64736f6c634300080d0033",
  "immutableReferences": {},
  "source": "// SPDX-License-Identifier: MIT\npragma solidity >=0.4.22 <0.9.0;\nimport \"@openzeppelin/contracts/utils/Counters.sol\";\nimport \"@openzeppelin/contracts/token/ERC721/ERC721.sol\";\nimport \"@openzeppelin/contracts/security/ReentrancyGuard.sol\";\n\nimport \"./NFT.sol\";\n\ncontract NFTMarketPlace is ReentrancyGuard {\n    address payable owner;\n    uint256 marketFees = 0.10 ether;\n    using Counters for Counters.Counter;\n    Counters.Counter private itemId;\n    Counters.Counter private itemsSold;\n    Counters.Counter private _itemsDeleted;\n\n    constructor() {\n        owner = payable(msg.sender);\n    }\n\n    struct NftMarketItem {\n        address nftContract;\n        uint256 id;\n        uint256 tokenId;\n        address payable creator;\n        address payable seller;\n        address payable owner;\n        address payable admin;\n        uint256 price;\n        int32 royalty;\n        bool sold;\n        address oldOwner;\n        address oldSeller;\n        uint256 oldPrice;\n        bool isResell;\n    }\n\n    event NftMarketItemCreated(\n        address indexed nftContract,\n        uint256 indexed id,\n        uint256 tokenId,\n        address creator,\n        address seller,\n        address owner,\n        address admin,\n        uint256 price,\n        int32 royalty,\n        bool sold,\n        address oldOwner,\n        address oldSeller,\n        uint256 oldPrice,\n        bool isResell\n    );\n\n    //=>\n    event ProductUpdated(\n        uint256 indexed id,\n        uint256 indexed newPrice,\n        bool sold,\n        address owner,\n        address seller\n    );\n    //=>\n    event MarketItemDeleted(uint256 id);\n    //=>\n    event ProductSold(\n        uint256 indexed id,\n        address indexed nftContract,\n        uint256 indexed tokenId,\n        address creator,\n        address seller,\n        address owner,\n        uint256 price,\n        address oldOwner,\n        address oldSeller,\n        uint256 oldPrice,\n        bool isResell\n    );\n    //==>\n    event ProductListed(uint256 indexed itemId);\n\n    function gettheMarketFees() public view returns (uint256) {\n        return marketFees;\n    }\n\n    ///////////////////////////////////\n    mapping(uint256 => NftMarketItem) private idForMarketItem;\n    ///////////////////////////////////\n    ///=>\n    modifier onlyProductOrMarketPlaceOwner(uint256 id) {\n        if (idForMarketItem[id].owner != address(0)) {\n            require(idForMarketItem[id].owner == msg.sender);\n        } else {\n            require(\n                idForMarketItem[id].seller == msg.sender || msg.sender == owner\n            );\n        }\n        _;\n    }\n\n    modifier onlyProductSeller(uint256 id) {\n        require(\n            idForMarketItem[id].owner == address(0) &&\n                idForMarketItem[id].seller == msg.sender,\n            \"Only the product can do this operation\"\n        );\n        _;\n    }\n\n    modifier onlyItemOwner(uint256 id) {\n        require(\n            idForMarketItem[id].owner == msg.sender,\n            \"Only product owner can do this operation\"\n        );\n        _;\n    }\n\n    modifier onlyItemOldOwner(uint256 id) {\n        require(\n            idForMarketItem[id].oldOwner == msg.sender,\n            \"Only product Old owner can do this operation\"\n        );\n        _;\n    }\n\n    function createItemForSale(\n        address nftContract,\n        uint256 tokenId,\n        uint256 price,\n        int32 royalty\n    ) public payable nonReentrant {\n        require(price > 0, \"Price should be moreThan 1\");\n        require(tokenId > 0, \"token Id should be moreThan 1\");\n        require(msg.value == marketFees, \"The Market Fees is 0.10 Ether\");\n        require(nftContract != address(0), \"address should not be equal 0x0\");\n        itemId.increment();\n        payable(owner).transfer(marketFees);\n        uint256 id = itemId.current();\n\n        idForMarketItem[id] = NftMarketItem(\n            nftContract,\n            id,\n            tokenId,\n            payable(msg.sender),\n            payable(msg.sender),\n            payable(address(0)),\n            owner,\n            price,\n            royalty,\n            false,\n            payable(address(0)),\n            payable(address(0)),\n            price,\n            false\n        );\n\n        IERC721(nftContract).transferFrom(msg.sender, address(this), tokenId);\n\n        //Creatore-seller-owner\n        emit NftMarketItemCreated(\n            nftContract,\n            id,\n            tokenId,\n            msg.sender,\n            msg.sender,\n            address(0),\n            owner,\n            price,\n            royalty,\n            false,\n            address(0),\n            address(0),\n            price,\n            false\n        );\n    }\n\n    //=>Update Item =>We Dont Use This\n\n    function updateMarketItem(\n        address nftContract,\n        uint256 id,\n        uint256 tokenId\n    ) public payable onlyProductSeller(id) {\n        NftMarketItem storage item = idForMarketItem[id];\n        uint256 newPrice = item.oldPrice;\n        item.price = newPrice;\n        item.sold = false;\n        address newOwner = item.oldOwner;\n        item.owner = payable(newOwner);\n        address newSeller = item.oldSeller;\n        item.seller = payable(newSeller);\n        NFT tokenContract = NFT(nftContract);\n        tokenContract.transferToken(msg.sender, address(this), tokenId);\n        emit ProductUpdated(id, newPrice, false, newOwner, newSeller);\n    }\n\n    //Buy Item\n\n    function createMarketForSale(address nftContract, uint256 nftItemId)\n        public\n        payable\n        nonReentrant\n    {\n        // uint256 price = idForMarketItem[nftItemId].price;\n        uint256 tokenId = idForMarketItem[nftItemId].tokenId;\n\n        // require(msg.value == price / 100 * 5, \"should buy the price of item\");\n        // idForMarketItem[nftItemId].seller.transfer(msg.value);\n        IERC721(nftContract).transferFrom(address(this), msg.sender, tokenId); //buy\n        idForMarketItem[nftItemId].owner = payable(msg.sender);\n        idForMarketItem[nftItemId].sold = true;\n        idForMarketItem[nftItemId].isResell = true;\n        itemsSold.increment();\n        // payable(owner).transfer(msg.value);\n        emit ProductSold(\n            idForMarketItem[nftItemId].id,\n            idForMarketItem[nftItemId].nftContract,\n            idForMarketItem[nftItemId].tokenId,\n            idForMarketItem[nftItemId].creator,\n            idForMarketItem[nftItemId].seller,\n            payable(msg.sender),\n            idForMarketItem[nftItemId].price,\n            address(0),\n            address(0),\n            0,\n            idForMarketItem[nftItemId].isResell\n        );\n    }\n\n    function cancelResellWitholdPrice(address nftContract, uint256 nftItemId)\n        public\n        payable\n        nonReentrant\n    {\n        uint256 price = idForMarketItem[nftItemId].oldPrice;\n        uint256 tokenId = idForMarketItem[nftItemId].tokenId;\n        IERC721(nftContract).transferFrom(address(this), msg.sender, tokenId); //buy\n        idForMarketItem[nftItemId].owner = payable(msg.sender);\n        idForMarketItem[nftItemId].price = price;\n        idForMarketItem[nftItemId].seller = payable(\n            idForMarketItem[nftItemId].oldSeller\n        );\n        idForMarketItem[nftItemId].sold = true;\n        itemsSold.increment();\n\n        emit ProductSold(\n            idForMarketItem[nftItemId].id,\n            idForMarketItem[nftItemId].nftContract,\n            idForMarketItem[nftItemId].tokenId,\n            idForMarketItem[nftItemId].creator,\n            idForMarketItem[nftItemId].seller,\n            payable(msg.sender),\n            idForMarketItem[nftItemId].price,\n            address(0),\n            address(0),\n            0,\n            idForMarketItem[nftItemId].isResell\n        );\n    }\n\n    //REsell\n    function putItemToResell(\n        address nftContract,\n        uint256 itemid,\n        uint256 newPrice\n    ) public payable nonReentrant onlyItemOwner(itemid) {\n        uint256 tokenId = idForMarketItem[itemid].tokenId;\n        require(newPrice > 0, \"Price must be at least 1 wei\");\n\n        NFT tokenContract = NFT(nftContract);\n\n        tokenContract.transferToken(msg.sender, address(this), tokenId);\n\n        address payable oldOwner = idForMarketItem[itemid].owner;\n        address payable oldSeller = idForMarketItem[itemid].seller;\n\n        uint256 oldPrice = idForMarketItem[itemid].price;\n\n        idForMarketItem[itemid].owner = payable(address(0));\n        idForMarketItem[itemid].seller = oldOwner;\n        idForMarketItem[itemid].price = newPrice;\n        idForMarketItem[itemid].sold = false;\n        //Start to save old value\n        idForMarketItem[itemid].oldOwner = oldOwner;\n        idForMarketItem[itemid].oldSeller = oldSeller;\n        idForMarketItem[itemid].oldPrice = oldPrice;\n\n        itemsSold.decrement();\n\n        emit ProductListed(itemid);\n    }\n\n    ///FETCH SINGLE NFT\n    function fetchSingleItem(uint256 id)\n        public\n        view\n        returns (NftMarketItem memory)\n    {\n        return idForMarketItem[id];\n    }\n\n    /////////////////////////GETS///////\n\n    //My items => sold,not sold,buy\n\n    function getMyItemCreated() public view returns (NftMarketItem[] memory) {\n        uint256 totalItemCount = itemId.current();\n        uint256 myItemCount = 0; //10\n        uint256 myCurrentIndex = 0;\n\n        for (uint256 i = 0; i < totalItemCount; i++) {\n            if (idForMarketItem[i + 1].creator == msg.sender) {\n                myItemCount += 1;\n            }\n        }\n        NftMarketItem[] memory nftItems = new NftMarketItem[](myItemCount); //list[3]\n        for (uint256 i = 0; i < totalItemCount; i++) {\n            if (idForMarketItem[i + 1].creator == msg.sender) {\n                //[1,2,3,4,5]\n                uint256 currentId = i + 1;\n                NftMarketItem storage currentItem = idForMarketItem[currentId];\n                nftItems[myCurrentIndex] = currentItem;\n                myCurrentIndex += 1;\n            }\n        }\n\n        return nftItems;\n    }\n\n    function getMyItemsolod() public view returns (NftMarketItem[] memory) {\n        uint256 totalItemCount = itemId.current();\n        uint256 myItemCount = 0; //10\n        uint256 myCurrentIndex = 0;\n\n        for (uint256 i = 0; i < totalItemCount; i++) {\n            if (idForMarketItem[i + 1].seller == msg.sender) {\n                myItemCount += 1;\n            }\n        }\n        NftMarketItem[] memory nftItems = new NftMarketItem[](myItemCount); //list[3]\n        for (uint256 i = 0; i < totalItemCount; i++) {\n            if (idForMarketItem[i + 1].seller == msg.sender) {\n                //[1,2,3,4,5]\n                uint256 currentId = i + 1;\n                NftMarketItem storage currentItem = idForMarketItem[currentId];\n                nftItems[myCurrentIndex] = currentItem;\n                myCurrentIndex += 1;\n            }\n        }\n\n        return nftItems;\n    }\n\n    //Create My purchased Nft Item\n\n    function getMyNFTPurchased() public view returns (NftMarketItem[] memory) {\n        uint256 totalItemCount = itemId.current();\n        uint256 myItemCount = 0; //10\n        uint256 myCurrentIndex = 0;\n\n        for (uint256 i = 0; i < totalItemCount; i++) {\n            if (idForMarketItem[i + 1].owner == msg.sender) {\n                myItemCount += 1;\n            }\n        }\n\n        NftMarketItem[] memory nftItems = new NftMarketItem[](myItemCount); //list[3]\n        for (uint256 i = 0; i < totalItemCount; i++) {\n            if (idForMarketItem[i + 1].owner == msg.sender) {\n                //[1,2,3,4,5]\n                uint256 currentId = i + 1;\n                NftMarketItem storage currentItem = idForMarketItem[currentId];\n                nftItems[myCurrentIndex] = currentItem;\n                myCurrentIndex += 1;\n            }\n        }\n\n        return nftItems;\n    }\n\n    //Fetch  all unsold nft items\n    function getAllUnsoldItems() public view returns (NftMarketItem[] memory) {\n        uint256 totalItemCount = itemId.current();\n        uint256 myItemCount = itemId.current() - itemsSold.current();\n        uint256 myCurrentIndex = 0;\n\n        NftMarketItem[] memory nftItems = new NftMarketItem[](myItemCount); //list[3]\n        for (uint256 i = 0; i < totalItemCount; i++) {\n            if (idForMarketItem[i + 1].owner == address(0)) {\n                //[1,2,3,4,5]\n                uint256 currentId = i + 1;\n                NftMarketItem storage currentItem = idForMarketItem[currentId];\n                nftItems[myCurrentIndex] = currentItem;\n                myCurrentIndex += 1;\n            }\n        }\n\n        return nftItems;\n    }\n\n    //Get resell my items\n\n    function getMyResellItems() public view returns (NftMarketItem[] memory) {\n        uint256 totalItemCount = itemId.current();\n        uint256 myItemCount = 0; //10\n        uint256 myCurrentIndex = 0;\n\n        for (uint256 i = 0; i < totalItemCount; i++) {\n            if (\n                (idForMarketItem[i + 1].seller == msg.sender) &&\n                (idForMarketItem[i + 1].sold == false)\n            ) {\n                myItemCount += 1;\n            }\n        }\n\n        NftMarketItem[] memory nftItems = new NftMarketItem[](myItemCount); //list[3]\n        for (uint256 i = 0; i < totalItemCount; i++) {\n            if (\n                (idForMarketItem[i + 1].seller == msg.sender) &&\n                (idForMarketItem[i + 1].sold == false)\n            ) {\n                //[1,2,3,4,5]\n                uint256 currentId = i + 1;\n                NftMarketItem storage currentItem = idForMarketItem[currentId];\n                nftItems[myCurrentIndex] = currentItem;\n                myCurrentIndex += 1;\n            }\n        }\n        return nftItems;\n    }\n}\n",
  "sourcePath": "E:\\BlockChainTutorial\\deployWithTruffle\\contracts\\NFTMarketPlace.sol",
  "compiler": {
    "name": "solc",
    "version": "0.8.13+commit.abaa5c0e.Emscripten.clang"
  },
  "schemaVersion": "3.4.7",
  "updatedAt": "2022-04-15T09:24:18.250Z",
  "networkType": "ethereum",
  "devdoc": {
    "kind": "dev",
    "methods": {},
    "version": 1
  },
  "userdoc": {
    "kind": "user",
    "methods": {
      "fetchSingleItem(uint256)": {
        "notice": "FETCH SINGLE NFT"
      }
    },
    "version": 1
  }
}